{
	"math.sol": {
		"math": {
			"abi": [
				{
					"anonymous": false,
					"inputs": [
						{
							"indexed": false,
							"internalType": "string",
							"name": "operation",
							"type": "string"
						},
						{
							"indexed": false,
							"internalType": "uint256",
							"name": "result",
							"type": "uint256"
						}
					],
					"name": "display",
					"type": "event"
				},
				{
					"inputs": [
						{
							"internalType": "uint256",
							"name": "input1",
							"type": "uint256"
						},
						{
							"internalType": "uint256",
							"name": "input2",
							"type": "uint256"
						}
					],
					"name": "operations",
					"outputs": [],
					"stateMutability": "nonpayable",
					"type": "function"
				}
			],
			"devdoc": {
				"kind": "dev",
				"methods": {},
				"version": 1
			},
			"evm": {
				"assembly": "    /* \"math.sol\":59:521  contract math{... */\n  mstore(0x40, 0x80)\n  callvalue\n  dup1\n  iszero\n  tag_1\n  jumpi\n  0x00\n  dup1\n  revert\ntag_1:\n  pop\n  dataSize(sub_0)\n  dup1\n  dataOffset(sub_0)\n  0x00\n  codecopy\n  0x00\n  return\nstop\n\nsub_0: assembly {\n        /* \"math.sol\":59:521  contract math{... */\n      mstore(0x40, 0x80)\n      callvalue\n      dup1\n      iszero\n      tag_1\n      jumpi\n      0x00\n      dup1\n      revert\n    tag_1:\n      pop\n      jumpi(tag_2, lt(calldatasize, 0x04))\n      shr(0xe0, calldataload(0x00))\n      dup1\n      0xd9c5c054\n      eq\n      tag_3\n      jumpi\n    tag_2:\n      0x00\n      dup1\n      revert\n        /* \"math.sol\":147:518  function operations(uint input1,uint input2) public {... */\n    tag_3:\n      tag_4\n      0x04\n      dup1\n      calldatasize\n      sub\n      dup2\n      add\n      swap1\n      tag_5\n      swap2\n      swap1\n      tag_6\n      jump\t// in\n    tag_5:\n      tag_7\n      jump\t// in\n    tag_4:\n      stop\n    tag_7:\n        /* \"math.sol\":226:232  input2 */\n      dup1\n        /* \"math.sol\":219:225  input1 */\n      dup3\n        /* \"math.sol\":219:232  input1+input2 */\n      tag_9\n      swap2\n      swap1\n      tag_10\n      jump\t// in\n    tag_9:\n        /* \"math.sol\":210:216  result */\n      0x00\n        /* \"math.sol\":210:232  result = input1+input2 */\n      dup2\n      swap1\n      sstore\n      pop\n        /* \"math.sol\":248:274  display(\"Addition\",result) */\n      0x0ee14aecad429977f312c05e796663fe3f4b9b745bd1965b635fe4abfb5f42d2\n        /* \"math.sol\":267:273  result */\n      sload(0x00)\n        /* \"math.sol\":248:274  display(\"Addition\",result) */\n      mload(0x40)\n      tag_11\n      swap2\n      swap1\n      tag_12\n      jump\t// in\n    tag_11:\n      mload(0x40)\n      dup1\n      swap2\n      sub\n      swap1\n      log1\n        /* \"math.sol\":301:307  input2 */\n      dup1\n        /* \"math.sol\":294:300  input1 */\n      dup3\n        /* \"math.sol\":294:307  input1-input2 */\n      tag_13\n      swap2\n      swap1\n      tag_14\n      jump\t// in\n    tag_13:\n        /* \"math.sol\":285:291  result */\n      0x00\n        /* \"math.sol\":285:307  result = input1-input2 */\n      dup2\n      swap1\n      sstore\n      pop\n        /* \"math.sol\":323:352  display(\"Subtraction\",result) */\n      0x0ee14aecad429977f312c05e796663fe3f4b9b745bd1965b635fe4abfb5f42d2\n        /* \"math.sol\":345:351  result */\n      sload(0x00)\n        /* \"math.sol\":323:352  display(\"Subtraction\",result) */\n      mload(0x40)\n      tag_15\n      swap2\n      swap1\n      tag_16\n      jump\t// in\n    tag_15:\n      mload(0x40)\n      dup1\n      swap2\n      sub\n      swap1\n      log1\n        /* \"math.sol\":379:385  input2 */\n      dup1\n        /* \"math.sol\":372:378  input1 */\n      dup3\n        /* \"math.sol\":372:385  input1*input2 */\n      tag_17\n      swap2\n      swap1\n      tag_18\n      jump\t// in\n    tag_17:\n        /* \"math.sol\":363:369  result */\n      0x00\n        /* \"math.sol\":363:385  result = input1*input2 */\n      dup2\n      swap1\n      sstore\n      pop\n        /* \"math.sol\":401:433  display(\"Multiplication\",result) */\n      0x0ee14aecad429977f312c05e796663fe3f4b9b745bd1965b635fe4abfb5f42d2\n        /* \"math.sol\":426:432  result */\n      sload(0x00)\n        /* \"math.sol\":401:433  display(\"Multiplication\",result) */\n      mload(0x40)\n      tag_19\n      swap2\n      swap1\n      tag_20\n      jump\t// in\n    tag_19:\n      mload(0x40)\n      dup1\n      swap2\n      sub\n      swap1\n      log1\n        /* \"math.sol\":460:466  input2 */\n      dup1\n        /* \"math.sol\":453:459  input1 */\n      dup3\n        /* \"math.sol\":453:466  input1/input2 */\n      tag_21\n      swap2\n      swap1\n      tag_22\n      jump\t// in\n    tag_21:\n        /* \"math.sol\":444:450  result */\n      0x00\n        /* \"math.sol\":444:466  result = input1/input2 */\n      dup2\n      swap1\n      sstore\n      pop\n        /* \"math.sol\":482:508  display(\"Division\",result) */\n      0x0ee14aecad429977f312c05e796663fe3f4b9b745bd1965b635fe4abfb5f42d2\n        /* \"math.sol\":501:507  result */\n      sload(0x00)\n        /* \"math.sol\":482:508  display(\"Division\",result) */\n      mload(0x40)\n      tag_23\n      swap2\n      swap1\n      tag_24\n      jump\t// in\n    tag_23:\n      mload(0x40)\n      dup1\n      swap2\n      sub\n      swap1\n      log1\n        /* \"math.sol\":147:518  function operations(uint input1,uint input2) public {... */\n      pop\n      pop\n      jump\t// out\n        /* \"#utility.yul\":88:205   */\n    tag_26:\n        /* \"#utility.yul\":197:198   */\n      0x00\n        /* \"#utility.yul\":194:195   */\n      dup1\n        /* \"#utility.yul\":187:199   */\n      revert\n        /* \"#utility.yul\":334:411   */\n    tag_28:\n        /* \"#utility.yul\":371:378   */\n      0x00\n        /* \"#utility.yul\":400:405   */\n      dup2\n        /* \"#utility.yul\":389:405   */\n      swap1\n      pop\n        /* \"#utility.yul\":334:411   */\n      swap2\n      swap1\n      pop\n      jump\t// out\n        /* \"#utility.yul\":417:539   */\n    tag_29:\n        /* \"#utility.yul\":490:514   */\n      tag_49\n        /* \"#utility.yul\":508:513   */\n      dup2\n        /* \"#utility.yul\":490:514   */\n      tag_28\n      jump\t// in\n    tag_49:\n        /* \"#utility.yul\":483:488   */\n      dup2\n        /* \"#utility.yul\":480:515   */\n      eq\n        /* \"#utility.yul\":470:533   */\n      tag_50\n      jumpi\n        /* \"#utility.yul\":529:530   */\n      0x00\n        /* \"#utility.yul\":526:527   */\n      dup1\n        /* \"#utility.yul\":519:531   */\n      revert\n        /* \"#utility.yul\":470:533   */\n    tag_50:\n        /* \"#utility.yul\":417:539   */\n      pop\n      jump\t// out\n        /* \"#utility.yul\":545:684   */\n    tag_30:\n        /* \"#utility.yul\":591:596   */\n      0x00\n        /* \"#utility.yul\":629:635   */\n      dup2\n        /* \"#utility.yul\":616:636   */\n      calldataload\n        /* \"#utility.yul\":607:636   */\n      swap1\n      pop\n        /* \"#utility.yul\":645:678   */\n      tag_52\n        /* \"#utility.yul\":672:677   */\n      dup2\n        /* \"#utility.yul\":645:678   */\n      tag_29\n      jump\t// in\n    tag_52:\n        /* \"#utility.yul\":545:684   */\n      swap3\n      swap2\n      pop\n      pop\n      jump\t// out\n        /* \"#utility.yul\":690:1164   */\n    tag_6:\n        /* \"#utility.yul\":758:764   */\n      0x00\n        /* \"#utility.yul\":766:772   */\n      dup1\n        /* \"#utility.yul\":815:817   */\n      0x40\n        /* \"#utility.yul\":803:812   */\n      dup4\n        /* \"#utility.yul\":794:801   */\n      dup6\n        /* \"#utility.yul\":790:813   */\n      sub\n        /* \"#utility.yul\":786:818   */\n      slt\n        /* \"#utility.yul\":783:902   */\n      iszero\n      tag_54\n      jumpi\n        /* \"#utility.yul\":821:900   */\n      tag_55\n      tag_26\n      jump\t// in\n    tag_55:\n        /* \"#utility.yul\":783:902   */\n    tag_54:\n        /* \"#utility.yul\":941:942   */\n      0x00\n        /* \"#utility.yul\":966:1019   */\n      tag_56\n        /* \"#utility.yul\":1011:1018   */\n      dup6\n        /* \"#utility.yul\":1002:1008   */\n      dup3\n        /* \"#utility.yul\":991:1000   */\n      dup7\n        /* \"#utility.yul\":987:1009   */\n      add\n        /* \"#utility.yul\":966:1019   */\n      tag_30\n      jump\t// in\n    tag_56:\n        /* \"#utility.yul\":956:1019   */\n      swap3\n      pop\n        /* \"#utility.yul\":912:1029   */\n      pop\n        /* \"#utility.yul\":1068:1070   */\n      0x20\n        /* \"#utility.yul\":1094:1147   */\n      tag_57\n        /* \"#utility.yul\":1139:1146   */\n      dup6\n        /* \"#utility.yul\":1130:1136   */\n      dup3\n        /* \"#utility.yul\":1119:1128   */\n      dup7\n        /* \"#utility.yul\":1115:1137   */\n      add\n        /* \"#utility.yul\":1094:1147   */\n      tag_30\n      jump\t// in\n    tag_57:\n        /* \"#utility.yul\":1084:1147   */\n      swap2\n      pop\n        /* \"#utility.yul\":1039:1157   */\n      pop\n        /* \"#utility.yul\":690:1164   */\n      swap3\n      pop\n      swap3\n      swap1\n      pop\n      jump\t// out\n        /* \"#utility.yul\":1170:1350   */\n    tag_31:\n        /* \"#utility.yul\":1218:1295   */\n      0x4e487b7100000000000000000000000000000000000000000000000000000000\n        /* \"#utility.yul\":1215:1216   */\n      0x00\n        /* \"#utility.yul\":1208:1296   */\n      mstore\n        /* \"#utility.yul\":1315:1319   */\n      0x11\n        /* \"#utility.yul\":1312:1313   */\n      0x04\n        /* \"#utility.yul\":1305:1320   */\n      mstore\n        /* \"#utility.yul\":1339:1343   */\n      0x24\n        /* \"#utility.yul\":1336:1337   */\n      0x00\n        /* \"#utility.yul\":1329:1344   */\n      revert\n        /* \"#utility.yul\":1356:1547   */\n    tag_10:\n        /* \"#utility.yul\":1396:1399   */\n      0x00\n        /* \"#utility.yul\":1415:1435   */\n      tag_60\n        /* \"#utility.yul\":1433:1434   */\n      dup3\n        /* \"#utility.yul\":1415:1435   */\n      tag_28\n      jump\t// in\n    tag_60:\n        /* \"#utility.yul\":1410:1435   */\n      swap2\n      pop\n        /* \"#utility.yul\":1449:1469   */\n      tag_61\n        /* \"#utility.yul\":1467:1468   */\n      dup4\n        /* \"#utility.yul\":1449:1469   */\n      tag_28\n      jump\t// in\n    tag_61:\n        /* \"#utility.yul\":1444:1469   */\n      swap3\n      pop\n        /* \"#utility.yul\":1492:1493   */\n      dup3\n        /* \"#utility.yul\":1489:1490   */\n      dup3\n        /* \"#utility.yul\":1485:1494   */\n      add\n        /* \"#utility.yul\":1478:1494   */\n      swap1\n      pop\n        /* \"#utility.yul\":1513:1516   */\n      dup1\n        /* \"#utility.yul\":1510:1511   */\n      dup3\n        /* \"#utility.yul\":1507:1517   */\n      gt\n        /* \"#utility.yul\":1504:1540   */\n      iszero\n      tag_62\n      jumpi\n        /* \"#utility.yul\":1520:1538   */\n      tag_63\n      tag_31\n      jump\t// in\n    tag_63:\n        /* \"#utility.yul\":1504:1540   */\n    tag_62:\n        /* \"#utility.yul\":1356:1547   */\n      swap3\n      swap2\n      pop\n      pop\n      jump\t// out\n        /* \"#utility.yul\":1553:1722   */\n    tag_32:\n        /* \"#utility.yul\":1637:1648   */\n      0x00\n        /* \"#utility.yul\":1671:1677   */\n      dup3\n        /* \"#utility.yul\":1666:1669   */\n      dup3\n        /* \"#utility.yul\":1659:1678   */\n      mstore\n        /* \"#utility.yul\":1711:1715   */\n      0x20\n        /* \"#utility.yul\":1706:1709   */\n      dup3\n        /* \"#utility.yul\":1702:1716   */\n      add\n        /* \"#utility.yul\":1687:1716   */\n      swap1\n      pop\n        /* \"#utility.yul\":1553:1722   */\n      swap3\n      swap2\n      pop\n      pop\n      jump\t// out\n        /* \"#utility.yul\":1728:1886   */\n    tag_33:\n        /* \"#utility.yul\":1868:1878   */\n      0x4164646974696f6e000000000000000000000000000000000000000000000000\n        /* \"#utility.yul\":1864:1865   */\n      0x00\n        /* \"#utility.yul\":1856:1862   */\n      dup3\n        /* \"#utility.yul\":1852:1866   */\n      add\n        /* \"#utility.yul\":1845:1879   */\n      mstore\n        /* \"#utility.yul\":1728:1886   */\n      pop\n      jump\t// out\n        /* \"#utility.yul\":1892:2257   */\n    tag_34:\n        /* \"#utility.yul\":2034:2037   */\n      0x00\n        /* \"#utility.yul\":2055:2121   */\n      tag_67\n        /* \"#utility.yul\":2119:2120   */\n      0x08\n        /* \"#utility.yul\":2114:2117   */\n      dup4\n        /* \"#utility.yul\":2055:2121   */\n      tag_32\n      jump\t// in\n    tag_67:\n        /* \"#utility.yul\":2048:2121   */\n      swap2\n      pop\n        /* \"#utility.yul\":2130:2223   */\n      tag_68\n        /* \"#utility.yul\":2219:2222   */\n      dup3\n        /* \"#utility.yul\":2130:2223   */\n      tag_33\n      jump\t// in\n    tag_68:\n        /* \"#utility.yul\":2248:2250   */\n      0x20\n        /* \"#utility.yul\":2243:2246   */\n      dup3\n        /* \"#utility.yul\":2239:2251   */\n      add\n        /* \"#utility.yul\":2232:2251   */\n      swap1\n      pop\n        /* \"#utility.yul\":1892:2257   */\n      swap2\n      swap1\n      pop\n      jump\t// out\n        /* \"#utility.yul\":2263:2381   */\n    tag_35:\n        /* \"#utility.yul\":2350:2374   */\n      tag_70\n        /* \"#utility.yul\":2368:2373   */\n      dup2\n        /* \"#utility.yul\":2350:2374   */\n      tag_28\n      jump\t// in\n    tag_70:\n        /* \"#utility.yul\":2345:2348   */\n      dup3\n        /* \"#utility.yul\":2338:2375   */\n      mstore\n        /* \"#utility.yul\":2263:2381   */\n      pop\n      pop\n      jump\t// out\n        /* \"#utility.yul\":2387:2916   */\n    tag_12:\n        /* \"#utility.yul\":2581:2585   */\n      0x00\n        /* \"#utility.yul\":2619:2621   */\n      0x40\n        /* \"#utility.yul\":2608:2617   */\n      dup3\n        /* \"#utility.yul\":2604:2622   */\n      add\n        /* \"#utility.yul\":2596:2622   */\n      swap1\n      pop\n        /* \"#utility.yul\":2668:2677   */\n      dup2\n        /* \"#utility.yul\":2662:2666   */\n      dup2\n        /* \"#utility.yul\":2658:2678   */\n      sub\n        /* \"#utility.yul\":2654:2655   */\n      0x00\n        /* \"#utility.yul\":2643:2652   */\n      dup4\n        /* \"#utility.yul\":2639:2656   */\n      add\n        /* \"#utility.yul\":2632:2679   */\n      mstore\n        /* \"#utility.yul\":2696:2827   */\n      tag_72\n        /* \"#utility.yul\":2822:2826   */\n      dup2\n        /* \"#utility.yul\":2696:2827   */\n      tag_34\n      jump\t// in\n    tag_72:\n        /* \"#utility.yul\":2688:2827   */\n      swap1\n      pop\n        /* \"#utility.yul\":2837:2909   */\n      tag_73\n        /* \"#utility.yul\":2905:2907   */\n      0x20\n        /* \"#utility.yul\":2894:2903   */\n      dup4\n        /* \"#utility.yul\":2890:2908   */\n      add\n        /* \"#utility.yul\":2881:2887   */\n      dup5\n        /* \"#utility.yul\":2837:2909   */\n      tag_35\n      jump\t// in\n    tag_73:\n        /* \"#utility.yul\":2387:2916   */\n      swap3\n      swap2\n      pop\n      pop\n      jump\t// out\n        /* \"#utility.yul\":2922:3116   */\n    tag_14:\n        /* \"#utility.yul\":2962:2966   */\n      0x00\n        /* \"#utility.yul\":2982:3002   */\n      tag_75\n        /* \"#utility.yul\":3000:3001   */\n      dup3\n        /* \"#utility.yul\":2982:3002   */\n      tag_28\n      jump\t// in\n    tag_75:\n        /* \"#utility.yul\":2977:3002   */\n      swap2\n      pop\n        /* \"#utility.yul\":3016:3036   */\n      tag_76\n        /* \"#utility.yul\":3034:3035   */\n      dup4\n        /* \"#utility.yul\":3016:3036   */\n      tag_28\n      jump\t// in\n    tag_76:\n        /* \"#utility.yul\":3011:3036   */\n      swap3\n      pop\n        /* \"#utility.yul\":3060:3061   */\n      dup3\n        /* \"#utility.yul\":3057:3058   */\n      dup3\n        /* \"#utility.yul\":3053:3062   */\n      sub\n        /* \"#utility.yul\":3045:3062   */\n      swap1\n      pop\n        /* \"#utility.yul\":3084:3085   */\n      dup2\n        /* \"#utility.yul\":3078:3082   */\n      dup2\n        /* \"#utility.yul\":3075:3086   */\n      gt\n        /* \"#utility.yul\":3072:3109   */\n      iszero\n      tag_77\n      jumpi\n        /* \"#utility.yul\":3089:3107   */\n      tag_78\n      tag_31\n      jump\t// in\n    tag_78:\n        /* \"#utility.yul\":3072:3109   */\n    tag_77:\n        /* \"#utility.yul\":2922:3116   */\n      swap3\n      swap2\n      pop\n      pop\n      jump\t// out\n        /* \"#utility.yul\":3122:3283   */\n    tag_36:\n        /* \"#utility.yul\":3262:3275   */\n      0x5375627472616374696f6e000000000000000000000000000000000000000000\n        /* \"#utility.yul\":3258:3259   */\n      0x00\n        /* \"#utility.yul\":3250:3256   */\n      dup3\n        /* \"#utility.yul\":3246:3260   */\n      add\n        /* \"#utility.yul\":3239:3276   */\n      mstore\n        /* \"#utility.yul\":3122:3283   */\n      pop\n      jump\t// out\n        /* \"#utility.yul\":3289:3655   */\n    tag_37:\n        /* \"#utility.yul\":3431:3434   */\n      0x00\n        /* \"#utility.yul\":3452:3519   */\n      tag_81\n        /* \"#utility.yul\":3516:3518   */\n      0x0b\n        /* \"#utility.yul\":3511:3514   */\n      dup4\n        /* \"#utility.yul\":3452:3519   */\n      tag_32\n      jump\t// in\n    tag_81:\n        /* \"#utility.yul\":3445:3519   */\n      swap2\n      pop\n        /* \"#utility.yul\":3528:3621   */\n      tag_82\n        /* \"#utility.yul\":3617:3620   */\n      dup3\n        /* \"#utility.yul\":3528:3621   */\n      tag_36\n      jump\t// in\n    tag_82:\n        /* \"#utility.yul\":3646:3648   */\n      0x20\n        /* \"#utility.yul\":3641:3644   */\n      dup3\n        /* \"#utility.yul\":3637:3649   */\n      add\n        /* \"#utility.yul\":3630:3649   */\n      swap1\n      pop\n        /* \"#utility.yul\":3289:3655   */\n      swap2\n      swap1\n      pop\n      jump\t// out\n        /* \"#utility.yul\":3661:4190   */\n    tag_16:\n        /* \"#utility.yul\":3855:3859   */\n      0x00\n        /* \"#utility.yul\":3893:3895   */\n      0x40\n        /* \"#utility.yul\":3882:3891   */\n      dup3\n        /* \"#utility.yul\":3878:3896   */\n      add\n        /* \"#utility.yul\":3870:3896   */\n      swap1\n      pop\n        /* \"#utility.yul\":3942:3951   */\n      dup2\n        /* \"#utility.yul\":3936:3940   */\n      dup2\n        /* \"#utility.yul\":3932:3952   */\n      sub\n        /* \"#utility.yul\":3928:3929   */\n      0x00\n        /* \"#utility.yul\":3917:3926   */\n      dup4\n        /* \"#utility.yul\":3913:3930   */\n      add\n        /* \"#utility.yul\":3906:3953   */\n      mstore\n        /* \"#utility.yul\":3970:4101   */\n      tag_84\n        /* \"#utility.yul\":4096:4100   */\n      dup2\n        /* \"#utility.yul\":3970:4101   */\n      tag_37\n      jump\t// in\n    tag_84:\n        /* \"#utility.yul\":3962:4101   */\n      swap1\n      pop\n        /* \"#utility.yul\":4111:4183   */\n      tag_85\n        /* \"#utility.yul\":4179:4181   */\n      0x20\n        /* \"#utility.yul\":4168:4177   */\n      dup4\n        /* \"#utility.yul\":4164:4182   */\n      add\n        /* \"#utility.yul\":4155:4161   */\n      dup5\n        /* \"#utility.yul\":4111:4183   */\n      tag_35\n      jump\t// in\n    tag_85:\n        /* \"#utility.yul\":3661:4190   */\n      swap3\n      swap2\n      pop\n      pop\n      jump\t// out\n        /* \"#utility.yul\":4196:4606   */\n    tag_18:\n        /* \"#utility.yul\":4236:4243   */\n      0x00\n        /* \"#utility.yul\":4259:4279   */\n      tag_87\n        /* \"#utility.yul\":4277:4278   */\n      dup3\n        /* \"#utility.yul\":4259:4279   */\n      tag_28\n      jump\t// in\n    tag_87:\n        /* \"#utility.yul\":4254:4279   */\n      swap2\n      pop\n        /* \"#utility.yul\":4293:4313   */\n      tag_88\n        /* \"#utility.yul\":4311:4312   */\n      dup4\n        /* \"#utility.yul\":4293:4313   */\n      tag_28\n      jump\t// in\n    tag_88:\n        /* \"#utility.yul\":4288:4313   */\n      swap3\n      pop\n        /* \"#utility.yul\":4348:4349   */\n      dup3\n        /* \"#utility.yul\":4345:4346   */\n      dup3\n        /* \"#utility.yul\":4341:4350   */\n      mul\n        /* \"#utility.yul\":4370:4400   */\n      tag_89\n        /* \"#utility.yul\":4388:4399   */\n      dup2\n        /* \"#utility.yul\":4370:4400   */\n      tag_28\n      jump\t// in\n    tag_89:\n        /* \"#utility.yul\":4359:4400   */\n      swap2\n      pop\n        /* \"#utility.yul\":4549:4550   */\n      dup3\n        /* \"#utility.yul\":4540:4547   */\n      dup3\n        /* \"#utility.yul\":4536:4551   */\n      div\n        /* \"#utility.yul\":4533:4534   */\n      dup5\n        /* \"#utility.yul\":4530:4552   */\n      eq\n        /* \"#utility.yul\":4510:4511   */\n      dup4\n        /* \"#utility.yul\":4503:4512   */\n      iszero\n        /* \"#utility.yul\":4483:4566   */\n      or\n        /* \"#utility.yul\":4460:4599   */\n      tag_90\n      jumpi\n        /* \"#utility.yul\":4579:4597   */\n      tag_91\n      tag_31\n      jump\t// in\n    tag_91:\n        /* \"#utility.yul\":4460:4599   */\n    tag_90:\n        /* \"#utility.yul\":4244:4606   */\n      pop\n        /* \"#utility.yul\":4196:4606   */\n      swap3\n      swap2\n      pop\n      pop\n      jump\t// out\n        /* \"#utility.yul\":4612:4776   */\n    tag_38:\n        /* \"#utility.yul\":4752:4768   */\n      0x4d756c7469706c69636174696f6e000000000000000000000000000000000000\n        /* \"#utility.yul\":4748:4749   */\n      0x00\n        /* \"#utility.yul\":4740:4746   */\n      dup3\n        /* \"#utility.yul\":4736:4750   */\n      add\n        /* \"#utility.yul\":4729:4769   */\n      mstore\n        /* \"#utility.yul\":4612:4776   */\n      pop\n      jump\t// out\n        /* \"#utility.yul\":4782:5148   */\n    tag_39:\n        /* \"#utility.yul\":4924:4927   */\n      0x00\n        /* \"#utility.yul\":4945:5012   */\n      tag_94\n        /* \"#utility.yul\":5009:5011   */\n      0x0e\n        /* \"#utility.yul\":5004:5007   */\n      dup4\n        /* \"#utility.yul\":4945:5012   */\n      tag_32\n      jump\t// in\n    tag_94:\n        /* \"#utility.yul\":4938:5012   */\n      swap2\n      pop\n        /* \"#utility.yul\":5021:5114   */\n      tag_95\n        /* \"#utility.yul\":5110:5113   */\n      dup3\n        /* \"#utility.yul\":5021:5114   */\n      tag_38\n      jump\t// in\n    tag_95:\n        /* \"#utility.yul\":5139:5141   */\n      0x20\n        /* \"#utility.yul\":5134:5137   */\n      dup3\n        /* \"#utility.yul\":5130:5142   */\n      add\n        /* \"#utility.yul\":5123:5142   */\n      swap1\n      pop\n        /* \"#utility.yul\":4782:5148   */\n      swap2\n      swap1\n      pop\n      jump\t// out\n        /* \"#utility.yul\":5154:5683   */\n    tag_20:\n        /* \"#utility.yul\":5348:5352   */\n      0x00\n        /* \"#utility.yul\":5386:5388   */\n      0x40\n        /* \"#utility.yul\":5375:5384   */\n      dup3\n        /* \"#utility.yul\":5371:5389   */\n      add\n        /* \"#utility.yul\":5363:5389   */\n      swap1\n      pop\n        /* \"#utility.yul\":5435:5444   */\n      dup2\n        /* \"#utility.yul\":5429:5433   */\n      dup2\n        /* \"#utility.yul\":5425:5445   */\n      sub\n        /* \"#utility.yul\":5421:5422   */\n      0x00\n        /* \"#utility.yul\":5410:5419   */\n      dup4\n        /* \"#utility.yul\":5406:5423   */\n      add\n        /* \"#utility.yul\":5399:5446   */\n      mstore\n        /* \"#utility.yul\":5463:5594   */\n      tag_97\n        /* \"#utility.yul\":5589:5593   */\n      dup2\n        /* \"#utility.yul\":5463:5594   */\n      tag_39\n      jump\t// in\n    tag_97:\n        /* \"#utility.yul\":5455:5594   */\n      swap1\n      pop\n        /* \"#utility.yul\":5604:5676   */\n      tag_98\n        /* \"#utility.yul\":5672:5674   */\n      0x20\n        /* \"#utility.yul\":5661:5670   */\n      dup4\n        /* \"#utility.yul\":5657:5675   */\n      add\n        /* \"#utility.yul\":5648:5654   */\n      dup5\n        /* \"#utility.yul\":5604:5676   */\n      tag_35\n      jump\t// in\n    tag_98:\n        /* \"#utility.yul\":5154:5683   */\n      swap3\n      swap2\n      pop\n      pop\n      jump\t// out\n        /* \"#utility.yul\":5689:5869   */\n    tag_40:\n        /* \"#utility.yul\":5737:5814   */\n      0x4e487b7100000000000000000000000000000000000000000000000000000000\n        /* \"#utility.yul\":5734:5735   */\n      0x00\n        /* \"#utility.yul\":5727:5815   */\n      mstore\n        /* \"#utility.yul\":5834:5838   */\n      0x12\n        /* \"#utility.yul\":5831:5832   */\n      0x04\n        /* \"#utility.yul\":5824:5839   */\n      mstore\n        /* \"#utility.yul\":5858:5862   */\n      0x24\n        /* \"#utility.yul\":5855:5856   */\n      0x00\n        /* \"#utility.yul\":5848:5863   */\n      revert\n        /* \"#utility.yul\":5875:6060   */\n    tag_22:\n        /* \"#utility.yul\":5915:5916   */\n      0x00\n        /* \"#utility.yul\":5932:5952   */\n      tag_101\n        /* \"#utility.yul\":5950:5951   */\n      dup3\n        /* \"#utility.yul\":5932:5952   */\n      tag_28\n      jump\t// in\n    tag_101:\n        /* \"#utility.yul\":5927:5952   */\n      swap2\n      pop\n        /* \"#utility.yul\":5966:5986   */\n      tag_102\n        /* \"#utility.yul\":5984:5985   */\n      dup4\n        /* \"#utility.yul\":5966:5986   */\n      tag_28\n      jump\t// in\n    tag_102:\n        /* \"#utility.yul\":5961:5986   */\n      swap3\n      pop\n        /* \"#utility.yul\":6005:6006   */\n      dup3\n        /* \"#utility.yul\":5995:6030   */\n      tag_103\n      jumpi\n        /* \"#utility.yul\":6010:6028   */\n      tag_104\n      tag_40\n      jump\t// in\n    tag_104:\n        /* \"#utility.yul\":5995:6030   */\n    tag_103:\n        /* \"#utility.yul\":6052:6053   */\n      dup3\n        /* \"#utility.yul\":6049:6050   */\n      dup3\n        /* \"#utility.yul\":6045:6054   */\n      div\n        /* \"#utility.yul\":6040:6054   */\n      swap1\n      pop\n        /* \"#utility.yul\":5875:6060   */\n      swap3\n      swap2\n      pop\n      pop\n      jump\t// out\n        /* \"#utility.yul\":6066:6224   */\n    tag_41:\n        /* \"#utility.yul\":6206:6216   */\n      0x4469766973696f6e000000000000000000000000000000000000000000000000\n        /* \"#utility.yul\":6202:6203   */\n      0x00\n        /* \"#utility.yul\":6194:6200   */\n      dup3\n        /* \"#utility.yul\":6190:6204   */\n      add\n        /* \"#utility.yul\":6183:6217   */\n      mstore\n        /* \"#utility.yul\":6066:6224   */\n      pop\n      jump\t// out\n        /* \"#utility.yul\":6230:6595   */\n    tag_42:\n        /* \"#utility.yul\":6372:6375   */\n      0x00\n        /* \"#utility.yul\":6393:6459   */\n      tag_107\n        /* \"#utility.yul\":6457:6458   */\n      0x08\n        /* \"#utility.yul\":6452:6455   */\n      dup4\n        /* \"#utility.yul\":6393:6459   */\n      tag_32\n      jump\t// in\n    tag_107:\n        /* \"#utility.yul\":6386:6459   */\n      swap2\n      pop\n        /* \"#utility.yul\":6468:6561   */\n      tag_108\n        /* \"#utility.yul\":6557:6560   */\n      dup3\n        /* \"#utility.yul\":6468:6561   */\n      tag_41\n      jump\t// in\n    tag_108:\n        /* \"#utility.yul\":6586:6588   */\n      0x20\n        /* \"#utility.yul\":6581:6584   */\n      dup3\n        /* \"#utility.yul\":6577:6589   */\n      add\n        /* \"#utility.yul\":6570:6589   */\n      swap1\n      pop\n        /* \"#utility.yul\":6230:6595   */\n      swap2\n      swap1\n      pop\n      jump\t// out\n        /* \"#utility.yul\":6601:7130   */\n    tag_24:\n        /* \"#utility.yul\":6795:6799   */\n      0x00\n        /* \"#utility.yul\":6833:6835   */\n      0x40\n        /* \"#utility.yul\":6822:6831   */\n      dup3\n        /* \"#utility.yul\":6818:6836   */\n      add\n        /* \"#utility.yul\":6810:6836   */\n      swap1\n      pop\n        /* \"#utility.yul\":6882:6891   */\n      dup2\n        /* \"#utility.yul\":6876:6880   */\n      dup2\n        /* \"#utility.yul\":6872:6892   */\n      sub\n        /* \"#utility.yul\":6868:6869   */\n      0x00\n        /* \"#utility.yul\":6857:6866   */\n      dup4\n        /* \"#utility.yul\":6853:6870   */\n      add\n        /* \"#utility.yul\":6846:6893   */\n      mstore\n        /* \"#utility.yul\":6910:7041   */\n      tag_110\n        /* \"#utility.yul\":7036:7040   */\n      dup2\n        /* \"#utility.yul\":6910:7041   */\n      tag_42\n      jump\t// in\n    tag_110:\n        /* \"#utility.yul\":6902:7041   */\n      swap1\n      pop\n        /* \"#utility.yul\":7051:7123   */\n      tag_111\n        /* \"#utility.yul\":7119:7121   */\n      0x20\n        /* \"#utility.yul\":7108:7117   */\n      dup4\n        /* \"#utility.yul\":7104:7122   */\n      add\n        /* \"#utility.yul\":7095:7101   */\n      dup5\n        /* \"#utility.yul\":7051:7123   */\n      tag_35\n      jump\t// in\n    tag_111:\n        /* \"#utility.yul\":6601:7130   */\n      swap3\n      swap2\n      pop\n      pop\n      jump\t// out\n\n    auxdata: 0xa2646970667358221220e74cb5b67a21a56db8f3fd7b9be16fcafe6b993bdc60fc1d5807e437a81d8b8464736f6c63430008120033\n}\n",
				"bytecode": {
					"linkReferences": {},
					"object": "608060405234801561001057600080fd5b5061056e806100206000396000f3fe608060405234801561001057600080fd5b506004361061002b5760003560e01c8063d9c5c05414610030575b600080fd5b61004a600480360381019061004591906101b7565b61004c565b005b80826100589190610226565b6000819055507f0ee14aecad429977f312c05e796663fe3f4b9b745bd1965b635fe4abfb5f42d260005460405161008f91906102c6565b60405180910390a180826100a391906102f4565b6000819055507f0ee14aecad429977f312c05e796663fe3f4b9b745bd1965b635fe4abfb5f42d26000546040516100da9190610374565b60405180910390a180826100ee91906103a2565b6000819055507f0ee14aecad429977f312c05e796663fe3f4b9b745bd1965b635fe4abfb5f42d26000546040516101259190610430565b60405180910390a18082610139919061048d565b6000819055507f0ee14aecad429977f312c05e796663fe3f4b9b745bd1965b635fe4abfb5f42d2600054604051610170919061050a565b60405180910390a15050565b600080fd5b6000819050919050565b61019481610181565b811461019f57600080fd5b50565b6000813590506101b18161018b565b92915050565b600080604083850312156101ce576101cd61017c565b5b60006101dc858286016101a2565b92505060206101ed858286016101a2565b9150509250929050565b7f4e487b7100000000000000000000000000000000000000000000000000000000600052601160045260246000fd5b600061023182610181565b915061023c83610181565b9250828201905080821115610254576102536101f7565b5b92915050565b600082825260208201905092915050565b7f4164646974696f6e000000000000000000000000000000000000000000000000600082015250565b60006102a160088361025a565b91506102ac8261026b565b602082019050919050565b6102c081610181565b82525050565b600060408201905081810360008301526102df81610294565b90506102ee60208301846102b7565b92915050565b60006102ff82610181565b915061030a83610181565b9250828203905081811115610322576103216101f7565b5b92915050565b7f5375627472616374696f6e000000000000000000000000000000000000000000600082015250565b600061035e600b8361025a565b915061036982610328565b602082019050919050565b6000604082019050818103600083015261038d81610351565b905061039c60208301846102b7565b92915050565b60006103ad82610181565b91506103b883610181565b92508282026103c681610181565b915082820484148315176103dd576103dc6101f7565b5b5092915050565b7f4d756c7469706c69636174696f6e000000000000000000000000000000000000600082015250565b600061041a600e8361025a565b9150610425826103e4565b602082019050919050565b600060408201905081810360008301526104498161040d565b905061045860208301846102b7565b92915050565b7f4e487b7100000000000000000000000000000000000000000000000000000000600052601260045260246000fd5b600061049882610181565b91506104a383610181565b9250826104b3576104b261045e565b5b828204905092915050565b7f4469766973696f6e000000000000000000000000000000000000000000000000600082015250565b60006104f460088361025a565b91506104ff826104be565b602082019050919050565b60006040820190508181036000830152610523816104e7565b905061053260208301846102b7565b9291505056fea2646970667358221220e74cb5b67a21a56db8f3fd7b9be16fcafe6b993bdc60fc1d5807e437a81d8b8464736f6c63430008120033",
					"opcodes": "PUSH1 0x80 PUSH1 0x40 MSTORE CALLVALUE DUP1 ISZERO PUSH2 0x10 JUMPI PUSH1 0x0 DUP1 REVERT JUMPDEST POP PUSH2 0x56E DUP1 PUSH2 0x20 PUSH1 0x0 CODECOPY PUSH1 0x0 RETURN INVALID PUSH1 0x80 PUSH1 0x40 MSTORE CALLVALUE DUP1 ISZERO PUSH2 0x10 JUMPI PUSH1 0x0 DUP1 REVERT JUMPDEST POP PUSH1 0x4 CALLDATASIZE LT PUSH2 0x2B JUMPI PUSH1 0x0 CALLDATALOAD PUSH1 0xE0 SHR DUP1 PUSH4 0xD9C5C054 EQ PUSH2 0x30 JUMPI JUMPDEST PUSH1 0x0 DUP1 REVERT JUMPDEST PUSH2 0x4A PUSH1 0x4 DUP1 CALLDATASIZE SUB DUP2 ADD SWAP1 PUSH2 0x45 SWAP2 SWAP1 PUSH2 0x1B7 JUMP JUMPDEST PUSH2 0x4C JUMP JUMPDEST STOP JUMPDEST DUP1 DUP3 PUSH2 0x58 SWAP2 SWAP1 PUSH2 0x226 JUMP JUMPDEST PUSH1 0x0 DUP2 SWAP1 SSTORE POP PUSH32 0xEE14AECAD429977F312C05E796663FE3F4B9B745BD1965B635FE4ABFB5F42D2 PUSH1 0x0 SLOAD PUSH1 0x40 MLOAD PUSH2 0x8F SWAP2 SWAP1 PUSH2 0x2C6 JUMP JUMPDEST PUSH1 0x40 MLOAD DUP1 SWAP2 SUB SWAP1 LOG1 DUP1 DUP3 PUSH2 0xA3 SWAP2 SWAP1 PUSH2 0x2F4 JUMP JUMPDEST PUSH1 0x0 DUP2 SWAP1 SSTORE POP PUSH32 0xEE14AECAD429977F312C05E796663FE3F4B9B745BD1965B635FE4ABFB5F42D2 PUSH1 0x0 SLOAD PUSH1 0x40 MLOAD PUSH2 0xDA SWAP2 SWAP1 PUSH2 0x374 JUMP JUMPDEST PUSH1 0x40 MLOAD DUP1 SWAP2 SUB SWAP1 LOG1 DUP1 DUP3 PUSH2 0xEE SWAP2 SWAP1 PUSH2 0x3A2 JUMP JUMPDEST PUSH1 0x0 DUP2 SWAP1 SSTORE POP PUSH32 0xEE14AECAD429977F312C05E796663FE3F4B9B745BD1965B635FE4ABFB5F42D2 PUSH1 0x0 SLOAD PUSH1 0x40 MLOAD PUSH2 0x125 SWAP2 SWAP1 PUSH2 0x430 JUMP JUMPDEST PUSH1 0x40 MLOAD DUP1 SWAP2 SUB SWAP1 LOG1 DUP1 DUP3 PUSH2 0x139 SWAP2 SWAP1 PUSH2 0x48D JUMP JUMPDEST PUSH1 0x0 DUP2 SWAP1 SSTORE POP PUSH32 0xEE14AECAD429977F312C05E796663FE3F4B9B745BD1965B635FE4ABFB5F42D2 PUSH1 0x0 SLOAD PUSH1 0x40 MLOAD PUSH2 0x170 SWAP2 SWAP1 PUSH2 0x50A JUMP JUMPDEST PUSH1 0x40 MLOAD DUP1 SWAP2 SUB SWAP1 LOG1 POP POP JUMP JUMPDEST PUSH1 0x0 DUP1 REVERT JUMPDEST PUSH1 0x0 DUP2 SWAP1 POP SWAP2 SWAP1 POP JUMP JUMPDEST PUSH2 0x194 DUP2 PUSH2 0x181 JUMP JUMPDEST DUP2 EQ PUSH2 0x19F JUMPI PUSH1 0x0 DUP1 REVERT JUMPDEST POP JUMP JUMPDEST PUSH1 0x0 DUP2 CALLDATALOAD SWAP1 POP PUSH2 0x1B1 DUP2 PUSH2 0x18B JUMP JUMPDEST SWAP3 SWAP2 POP POP JUMP JUMPDEST PUSH1 0x0 DUP1 PUSH1 0x40 DUP4 DUP6 SUB SLT ISZERO PUSH2 0x1CE JUMPI PUSH2 0x1CD PUSH2 0x17C JUMP JUMPDEST JUMPDEST PUSH1 0x0 PUSH2 0x1DC DUP6 DUP3 DUP7 ADD PUSH2 0x1A2 JUMP JUMPDEST SWAP3 POP POP PUSH1 0x20 PUSH2 0x1ED DUP6 DUP3 DUP7 ADD PUSH2 0x1A2 JUMP JUMPDEST SWAP2 POP POP SWAP3 POP SWAP3 SWAP1 POP JUMP JUMPDEST PUSH32 0x4E487B7100000000000000000000000000000000000000000000000000000000 PUSH1 0x0 MSTORE PUSH1 0x11 PUSH1 0x4 MSTORE PUSH1 0x24 PUSH1 0x0 REVERT JUMPDEST PUSH1 0x0 PUSH2 0x231 DUP3 PUSH2 0x181 JUMP JUMPDEST SWAP2 POP PUSH2 0x23C DUP4 PUSH2 0x181 JUMP JUMPDEST SWAP3 POP DUP3 DUP3 ADD SWAP1 POP DUP1 DUP3 GT ISZERO PUSH2 0x254 JUMPI PUSH2 0x253 PUSH2 0x1F7 JUMP JUMPDEST JUMPDEST SWAP3 SWAP2 POP POP JUMP JUMPDEST PUSH1 0x0 DUP3 DUP3 MSTORE PUSH1 0x20 DUP3 ADD SWAP1 POP SWAP3 SWAP2 POP POP JUMP JUMPDEST PUSH32 0x4164646974696F6E000000000000000000000000000000000000000000000000 PUSH1 0x0 DUP3 ADD MSTORE POP JUMP JUMPDEST PUSH1 0x0 PUSH2 0x2A1 PUSH1 0x8 DUP4 PUSH2 0x25A JUMP JUMPDEST SWAP2 POP PUSH2 0x2AC DUP3 PUSH2 0x26B JUMP JUMPDEST PUSH1 0x20 DUP3 ADD SWAP1 POP SWAP2 SWAP1 POP JUMP JUMPDEST PUSH2 0x2C0 DUP2 PUSH2 0x181 JUMP JUMPDEST DUP3 MSTORE POP POP JUMP JUMPDEST PUSH1 0x0 PUSH1 0x40 DUP3 ADD SWAP1 POP DUP2 DUP2 SUB PUSH1 0x0 DUP4 ADD MSTORE PUSH2 0x2DF DUP2 PUSH2 0x294 JUMP JUMPDEST SWAP1 POP PUSH2 0x2EE PUSH1 0x20 DUP4 ADD DUP5 PUSH2 0x2B7 JUMP JUMPDEST SWAP3 SWAP2 POP POP JUMP JUMPDEST PUSH1 0x0 PUSH2 0x2FF DUP3 PUSH2 0x181 JUMP JUMPDEST SWAP2 POP PUSH2 0x30A DUP4 PUSH2 0x181 JUMP JUMPDEST SWAP3 POP DUP3 DUP3 SUB SWAP1 POP DUP2 DUP2 GT ISZERO PUSH2 0x322 JUMPI PUSH2 0x321 PUSH2 0x1F7 JUMP JUMPDEST JUMPDEST SWAP3 SWAP2 POP POP JUMP JUMPDEST PUSH32 0x5375627472616374696F6E000000000000000000000000000000000000000000 PUSH1 0x0 DUP3 ADD MSTORE POP JUMP JUMPDEST PUSH1 0x0 PUSH2 0x35E PUSH1 0xB DUP4 PUSH2 0x25A JUMP JUMPDEST SWAP2 POP PUSH2 0x369 DUP3 PUSH2 0x328 JUMP JUMPDEST PUSH1 0x20 DUP3 ADD SWAP1 POP SWAP2 SWAP1 POP JUMP JUMPDEST PUSH1 0x0 PUSH1 0x40 DUP3 ADD SWAP1 POP DUP2 DUP2 SUB PUSH1 0x0 DUP4 ADD MSTORE PUSH2 0x38D DUP2 PUSH2 0x351 JUMP JUMPDEST SWAP1 POP PUSH2 0x39C PUSH1 0x20 DUP4 ADD DUP5 PUSH2 0x2B7 JUMP JUMPDEST SWAP3 SWAP2 POP POP JUMP JUMPDEST PUSH1 0x0 PUSH2 0x3AD DUP3 PUSH2 0x181 JUMP JUMPDEST SWAP2 POP PUSH2 0x3B8 DUP4 PUSH2 0x181 JUMP JUMPDEST SWAP3 POP DUP3 DUP3 MUL PUSH2 0x3C6 DUP2 PUSH2 0x181 JUMP JUMPDEST SWAP2 POP DUP3 DUP3 DIV DUP5 EQ DUP4 ISZERO OR PUSH2 0x3DD JUMPI PUSH2 0x3DC PUSH2 0x1F7 JUMP JUMPDEST JUMPDEST POP SWAP3 SWAP2 POP POP JUMP JUMPDEST PUSH32 0x4D756C7469706C69636174696F6E000000000000000000000000000000000000 PUSH1 0x0 DUP3 ADD MSTORE POP JUMP JUMPDEST PUSH1 0x0 PUSH2 0x41A PUSH1 0xE DUP4 PUSH2 0x25A JUMP JUMPDEST SWAP2 POP PUSH2 0x425 DUP3 PUSH2 0x3E4 JUMP JUMPDEST PUSH1 0x20 DUP3 ADD SWAP1 POP SWAP2 SWAP1 POP JUMP JUMPDEST PUSH1 0x0 PUSH1 0x40 DUP3 ADD SWAP1 POP DUP2 DUP2 SUB PUSH1 0x0 DUP4 ADD MSTORE PUSH2 0x449 DUP2 PUSH2 0x40D JUMP JUMPDEST SWAP1 POP PUSH2 0x458 PUSH1 0x20 DUP4 ADD DUP5 PUSH2 0x2B7 JUMP JUMPDEST SWAP3 SWAP2 POP POP JUMP JUMPDEST PUSH32 0x4E487B7100000000000000000000000000000000000000000000000000000000 PUSH1 0x0 MSTORE PUSH1 0x12 PUSH1 0x4 MSTORE PUSH1 0x24 PUSH1 0x0 REVERT JUMPDEST PUSH1 0x0 PUSH2 0x498 DUP3 PUSH2 0x181 JUMP JUMPDEST SWAP2 POP PUSH2 0x4A3 DUP4 PUSH2 0x181 JUMP JUMPDEST SWAP3 POP DUP3 PUSH2 0x4B3 JUMPI PUSH2 0x4B2 PUSH2 0x45E JUMP JUMPDEST JUMPDEST DUP3 DUP3 DIV SWAP1 POP SWAP3 SWAP2 POP POP JUMP JUMPDEST PUSH32 0x4469766973696F6E000000000000000000000000000000000000000000000000 PUSH1 0x0 DUP3 ADD MSTORE POP JUMP JUMPDEST PUSH1 0x0 PUSH2 0x4F4 PUSH1 0x8 DUP4 PUSH2 0x25A JUMP JUMPDEST SWAP2 POP PUSH2 0x4FF DUP3 PUSH2 0x4BE JUMP JUMPDEST PUSH1 0x20 DUP3 ADD SWAP1 POP SWAP2 SWAP1 POP JUMP JUMPDEST PUSH1 0x0 PUSH1 0x40 DUP3 ADD SWAP1 POP DUP2 DUP2 SUB PUSH1 0x0 DUP4 ADD MSTORE PUSH2 0x523 DUP2 PUSH2 0x4E7 JUMP JUMPDEST SWAP1 POP PUSH2 0x532 PUSH1 0x20 DUP4 ADD DUP5 PUSH2 0x2B7 JUMP JUMPDEST SWAP3 SWAP2 POP POP JUMP INVALID LOG2 PUSH5 0x6970667358 0x22 SLT KECCAK256 0xE7 0x4C 0xB5 0xB6 PUSH27 0x21A56DB8F3FD7B9BE16FCAFE6B993BDC60FC1D5807E437A81D8B84 PUSH5 0x736F6C6343 STOP ADDMOD SLT STOP CALLER "
				},
				"gasEstimates": {
					"creation": {
						"codeDepositCost": "278000",
						"executionCost": "318",
						"totalCost": "278318"
					},
					"external": {
						"operations(uint256,uint256)": "infinite"
					}
				},
				"methodIdentifiers": {
					"operations(uint256,uint256)": "d9c5c054"
				}
			},
			"storageLayout": {
				"storage": [
					{
						"astId": 3,
						"contract": "math.sol:math",
						"label": "result",
						"offset": 0,
						"slot": "0",
						"type": "t_uint256"
					}
				],
				"types": {
					"t_uint256": {
						"encoding": "inplace",
						"label": "uint256",
						"numberOfBytes": "32"
					}
				}
			},
			"userdoc": {
				"kind": "user",
				"methods": {},
				"version": 1
			}
		}
	}
}