{
	"condition_math.sol": {
		"condition_math": {
			"abi": [
				{
					"inputs": [
						{
							"internalType": "uint256",
							"name": "input1",
							"type": "uint256"
						},
						{
							"internalType": "string",
							"name": "operator",
							"type": "string"
						},
						{
							"internalType": "uint256",
							"name": "input2",
							"type": "uint256"
						}
					],
					"name": "calculate",
					"outputs": [
						{
							"internalType": "uint256",
							"name": "",
							"type": "uint256"
						}
					],
					"stateMutability": "pure",
					"type": "function"
				},
				{
					"inputs": [
						{
							"internalType": "string",
							"name": "str1",
							"type": "string"
						},
						{
							"internalType": "string",
							"name": "str2",
							"type": "string"
						}
					],
					"name": "compare_strings",
					"outputs": [
						{
							"internalType": "bool",
							"name": "",
							"type": "bool"
						}
					],
					"stateMutability": "pure",
					"type": "function"
				}
			],
			"devdoc": {
				"kind": "dev",
				"methods": {},
				"version": 1
			},
			"evm": {
				"assembly": "    /* \"condition_math.sol\":61:882  contract condition_math{... */\n  mstore(0x40, 0x80)\n  callvalue\n  dup1\n  iszero\n  tag_1\n  jumpi\n  0x00\n  dup1\n  revert\ntag_1:\n  pop\n  dataSize(sub_0)\n  dup1\n  dataOffset(sub_0)\n  0x00\n  codecopy\n  0x00\n  return\nstop\n\nsub_0: assembly {\n        /* \"condition_math.sol\":61:882  contract condition_math{... */\n      mstore(0x40, 0x80)\n      callvalue\n      dup1\n      iszero\n      tag_1\n      jumpi\n      0x00\n      dup1\n      revert\n    tag_1:\n      pop\n      jumpi(tag_2, lt(calldatasize, 0x04))\n      shr(0xe0, calldataload(0x00))\n      dup1\n      0xafc3342e\n      eq\n      tag_3\n      jumpi\n      dup1\n      0xcbc02821\n      eq\n      tag_4\n      jumpi\n    tag_2:\n      0x00\n      dup1\n      revert\n        /* \"condition_math.sol\":97:339  function compare_strings(string memory str1,string memory str2) public pure returns(bool){... */\n    tag_3:\n      tag_5\n      0x04\n      dup1\n      calldatasize\n      sub\n      dup2\n      add\n      swap1\n      tag_6\n      swap2\n      swap1\n      tag_7\n      jump\t// in\n    tag_6:\n      tag_8\n      jump\t// in\n    tag_5:\n      mload(0x40)\n      tag_9\n      swap2\n      swap1\n      tag_10\n      jump\t// in\n    tag_9:\n      mload(0x40)\n      dup1\n      swap2\n      sub\n      swap1\n      return\n        /* \"condition_math.sol\":345:879  function calculate(uint input1,string memory operator,uint input2) public pure returns(uint){... */\n    tag_4:\n      tag_11\n      0x04\n      dup1\n      calldatasize\n      sub\n      dup2\n      add\n      swap1\n      tag_12\n      swap2\n      swap1\n      tag_13\n      jump\t// in\n    tag_12:\n      tag_14\n      jump\t// in\n    tag_11:\n      mload(0x40)\n      tag_15\n      swap2\n      swap1\n      tag_16\n      jump\t// in\n    tag_15:\n      mload(0x40)\n      dup1\n      swap2\n      sub\n      swap1\n      return\n        /* \"condition_math.sol\":97:339  function compare_strings(string memory str1,string memory str2) public pure returns(bool){... */\n    tag_8:\n        /* \"condition_math.sol\":181:185  bool */\n      0x00\n        /* \"condition_math.sol\":264:268  str2 */\n      dup2\n        /* \"condition_math.sol\":247:269  abi.encodePacked(str2) */\n      add(0x20, mload(0x40))\n      tag_18\n      swap2\n      swap1\n      tag_19\n      jump\t// in\n    tag_18:\n      mload(0x40)\n      0x20\n      dup2\n      dup4\n      sub\n      sub\n      dup2\n      mstore\n      swap1\n      0x40\n      mstore\n        /* \"condition_math.sol\":237:270  keccak256(abi.encodePacked(str2)) */\n      dup1\n      mload\n      swap1\n      0x20\n      add\n      keccak256\n        /* \"condition_math.sol\":227:231  str1 */\n      dup4\n        /* \"condition_math.sol\":210:232  abi.encodePacked(str1) */\n      add(0x20, mload(0x40))\n      tag_20\n      swap2\n      swap1\n      tag_19\n      jump\t// in\n    tag_20:\n      mload(0x40)\n      0x20\n      dup2\n      dup4\n      sub\n      sub\n      dup2\n      mstore\n      swap1\n      0x40\n      mstore\n        /* \"condition_math.sol\":200:233  keccak256(abi.encodePacked(str1)) */\n      dup1\n      mload\n      swap1\n      0x20\n      add\n      keccak256\n        /* \"condition_math.sol\":200:270  keccak256(abi.encodePacked(str1)) == keccak256(abi.encodePacked(str2)) */\n      sub\n        /* \"condition_math.sol\":197:309  if(keccak256(abi.encodePacked(str1)) == keccak256(abi.encodePacked(str2))){... */\n      tag_21\n      jumpi\n        /* \"condition_math.sol\":293:297  true */\n      0x01\n        /* \"condition_math.sol\":286:297  return true */\n      swap1\n      pop\n      jump(tag_17)\n        /* \"condition_math.sol\":197:309  if(keccak256(abi.encodePacked(str1)) == keccak256(abi.encodePacked(str2))){... */\n    tag_21:\n        /* \"condition_math.sol\":326:331  false */\n      0x00\n        /* \"condition_math.sol\":319:331  return false */\n      swap1\n      pop\n        /* \"condition_math.sol\":97:339  function compare_strings(string memory str1,string memory str2) public pure returns(bool){... */\n    tag_17:\n      swap3\n      swap2\n      pop\n      pop\n      jump\t// out\n        /* \"condition_math.sol\":345:879  function calculate(uint input1,string memory operator,uint input2) public pure returns(uint){... */\n    tag_14:\n        /* \"condition_math.sol\":432:436  uint */\n      0x00\n        /* \"condition_math.sol\":448:459  uint result */\n      dup1\n        /* \"condition_math.sol\":473:503  compare_strings(operator, \"+\") */\n      tag_23\n        /* \"condition_math.sol\":489:497  operator */\n      dup5\n        /* \"condition_math.sol\":473:503  compare_strings(operator, \"+\") */\n      mload(0x40)\n      dup1\n      0x40\n      add\n      0x40\n      mstore\n      dup1\n      0x01\n      dup2\n      mstore\n      0x20\n      add\n      0x2b00000000000000000000000000000000000000000000000000000000000000\n      dup2\n      mstore\n      pop\n        /* \"condition_math.sol\":473:488  compare_strings */\n      tag_8\n        /* \"condition_math.sol\":473:503  compare_strings(operator, \"+\") */\n      jump\t// in\n    tag_23:\n        /* \"condition_math.sol\":470:848  if(compare_strings(operator, \"+\")){... */\n      iszero\n      tag_24\n      jumpi\n        /* \"condition_math.sol\":535:541  input2 */\n      dup3\n        /* \"condition_math.sol\":528:534  input1 */\n      dup6\n        /* \"condition_math.sol\":528:541  input1+input2 */\n      tag_25\n      swap2\n      swap1\n      tag_26\n      jump\t// in\n    tag_25:\n        /* \"condition_math.sol\":519:541  result = input1+input2 */\n      swap1\n      pop\n        /* \"condition_math.sol\":470:848  if(compare_strings(operator, \"+\")){... */\n      jump(tag_27)\n    tag_24:\n        /* \"condition_math.sol\":571:601  compare_strings(operator, \"-\") */\n      tag_28\n        /* \"condition_math.sol\":587:595  operator */\n      dup5\n        /* \"condition_math.sol\":571:601  compare_strings(operator, \"-\") */\n      mload(0x40)\n      dup1\n      0x40\n      add\n      0x40\n      mstore\n      dup1\n      0x01\n      dup2\n      mstore\n      0x20\n      add\n      0x2d00000000000000000000000000000000000000000000000000000000000000\n      dup2\n      mstore\n      pop\n        /* \"condition_math.sol\":571:586  compare_strings */\n      tag_8\n        /* \"condition_math.sol\":571:601  compare_strings(operator, \"-\") */\n      jump\t// in\n    tag_28:\n        /* \"condition_math.sol\":568:848  if(compare_strings(operator, \"-\")){... */\n      iszero\n      tag_29\n      jumpi\n        /* \"condition_math.sol\":633:639  input2 */\n      dup3\n        /* \"condition_math.sol\":626:632  input1 */\n      dup6\n        /* \"condition_math.sol\":626:639  input1-input2 */\n      tag_30\n      swap2\n      swap1\n      tag_31\n      jump\t// in\n    tag_30:\n        /* \"condition_math.sol\":617:639  result = input1-input2 */\n      swap1\n      pop\n        /* \"condition_math.sol\":568:848  if(compare_strings(operator, \"-\")){... */\n      jump(tag_32)\n    tag_29:\n        /* \"condition_math.sol\":669:699  compare_strings(operator, \"*\") */\n      tag_33\n        /* \"condition_math.sol\":685:693  operator */\n      dup5\n        /* \"condition_math.sol\":669:699  compare_strings(operator, \"*\") */\n      mload(0x40)\n      dup1\n      0x40\n      add\n      0x40\n      mstore\n      dup1\n      0x01\n      dup2\n      mstore\n      0x20\n      add\n      0x2a00000000000000000000000000000000000000000000000000000000000000\n      dup2\n      mstore\n      pop\n        /* \"condition_math.sol\":669:684  compare_strings */\n      tag_8\n        /* \"condition_math.sol\":669:699  compare_strings(operator, \"*\") */\n      jump\t// in\n    tag_33:\n        /* \"condition_math.sol\":666:848  if(compare_strings(operator, \"*\")){... */\n      iszero\n      tag_34\n      jumpi\n        /* \"condition_math.sol\":732:738  input2 */\n      dup3\n        /* \"condition_math.sol\":725:731  input1 */\n      dup6\n        /* \"condition_math.sol\":725:738  input1*input2 */\n      tag_35\n      swap2\n      swap1\n      tag_36\n      jump\t// in\n    tag_35:\n        /* \"condition_math.sol\":715:738  result =  input1*input2 */\n      swap1\n      pop\n        /* \"condition_math.sol\":666:848  if(compare_strings(operator, \"*\")){... */\n      jump(tag_37)\n    tag_34:\n        /* \"condition_math.sol\":768:798  compare_strings(operator, \"/\") */\n      tag_38\n        /* \"condition_math.sol\":784:792  operator */\n      dup5\n        /* \"condition_math.sol\":768:798  compare_strings(operator, \"/\") */\n      mload(0x40)\n      dup1\n      0x40\n      add\n      0x40\n      mstore\n      dup1\n      0x01\n      dup2\n      mstore\n      0x20\n      add\n      0x2f00000000000000000000000000000000000000000000000000000000000000\n      dup2\n      mstore\n      pop\n        /* \"condition_math.sol\":768:783  compare_strings */\n      tag_8\n        /* \"condition_math.sol\":768:798  compare_strings(operator, \"/\") */\n      jump\t// in\n    tag_38:\n        /* \"condition_math.sol\":765:848  if(compare_strings(operator, \"/\")){... */\n      iszero\n      tag_39\n      jumpi\n        /* \"condition_math.sol\":830:836  input2 */\n      dup3\n        /* \"condition_math.sol\":823:829  input1 */\n      dup6\n        /* \"condition_math.sol\":823:836  input1/input2 */\n      tag_40\n      swap2\n      swap1\n      tag_41\n      jump\t// in\n    tag_40:\n        /* \"condition_math.sol\":814:836  result = input1/input2 */\n      swap1\n      pop\n        /* \"condition_math.sol\":765:848  if(compare_strings(operator, \"/\")){... */\n    tag_39:\n        /* \"condition_math.sol\":666:848  if(compare_strings(operator, \"*\")){... */\n    tag_37:\n        /* \"condition_math.sol\":568:848  if(compare_strings(operator, \"-\")){... */\n    tag_32:\n        /* \"condition_math.sol\":470:848  if(compare_strings(operator, \"+\")){... */\n    tag_27:\n        /* \"condition_math.sol\":865:871  result */\n      dup1\n        /* \"condition_math.sol\":858:871  return result */\n      swap2\n      pop\n      pop\n        /* \"condition_math.sol\":345:879  function calculate(uint input1,string memory operator,uint input2) public pure returns(uint){... */\n      swap4\n      swap3\n      pop\n      pop\n      pop\n      jump\t// out\n        /* \"#utility.yul\":7:82   */\n    tag_42:\n        /* \"#utility.yul\":40:46   */\n      0x00\n        /* \"#utility.yul\":73:75   */\n      0x40\n        /* \"#utility.yul\":67:76   */\n      mload\n        /* \"#utility.yul\":57:76   */\n      swap1\n      pop\n        /* \"#utility.yul\":7:82   */\n      swap1\n      jump\t// out\n        /* \"#utility.yul\":88:205   */\n    tag_43:\n        /* \"#utility.yul\":197:198   */\n      0x00\n        /* \"#utility.yul\":194:195   */\n      dup1\n        /* \"#utility.yul\":187:199   */\n      revert\n        /* \"#utility.yul\":211:328   */\n    tag_44:\n        /* \"#utility.yul\":320:321   */\n      0x00\n        /* \"#utility.yul\":317:318   */\n      dup1\n        /* \"#utility.yul\":310:322   */\n      revert\n        /* \"#utility.yul\":334:451   */\n    tag_45:\n        /* \"#utility.yul\":443:444   */\n      0x00\n        /* \"#utility.yul\":440:441   */\n      dup1\n        /* \"#utility.yul\":433:445   */\n      revert\n        /* \"#utility.yul\":457:574   */\n    tag_46:\n        /* \"#utility.yul\":566:567   */\n      0x00\n        /* \"#utility.yul\":563:564   */\n      dup1\n        /* \"#utility.yul\":556:568   */\n      revert\n        /* \"#utility.yul\":580:682   */\n    tag_47:\n        /* \"#utility.yul\":621:627   */\n      0x00\n        /* \"#utility.yul\":672:674   */\n      0x1f\n        /* \"#utility.yul\":668:675   */\n      not\n        /* \"#utility.yul\":663:665   */\n      0x1f\n        /* \"#utility.yul\":656:661   */\n      dup4\n        /* \"#utility.yul\":652:666   */\n      add\n        /* \"#utility.yul\":648:676   */\n      and\n        /* \"#utility.yul\":638:676   */\n      swap1\n      pop\n        /* \"#utility.yul\":580:682   */\n      swap2\n      swap1\n      pop\n      jump\t// out\n        /* \"#utility.yul\":688:868   */\n    tag_48:\n        /* \"#utility.yul\":736:813   */\n      0x4e487b7100000000000000000000000000000000000000000000000000000000\n        /* \"#utility.yul\":733:734   */\n      0x00\n        /* \"#utility.yul\":726:814   */\n      mstore\n        /* \"#utility.yul\":833:837   */\n      0x41\n        /* \"#utility.yul\":830:831   */\n      0x04\n        /* \"#utility.yul\":823:838   */\n      mstore\n        /* \"#utility.yul\":857:861   */\n      0x24\n        /* \"#utility.yul\":854:855   */\n      0x00\n        /* \"#utility.yul\":847:862   */\n      revert\n        /* \"#utility.yul\":874:1155   */\n    tag_49:\n        /* \"#utility.yul\":957:984   */\n      tag_76\n        /* \"#utility.yul\":979:983   */\n      dup3\n        /* \"#utility.yul\":957:984   */\n      tag_47\n      jump\t// in\n    tag_76:\n        /* \"#utility.yul\":949:955   */\n      dup2\n        /* \"#utility.yul\":945:985   */\n      add\n        /* \"#utility.yul\":1087:1093   */\n      dup2\n        /* \"#utility.yul\":1075:1085   */\n      dup2\n        /* \"#utility.yul\":1072:1094   */\n      lt\n        /* \"#utility.yul\":1051:1069   */\n      0xffffffffffffffff\n        /* \"#utility.yul\":1039:1049   */\n      dup3\n        /* \"#utility.yul\":1036:1070   */\n      gt\n        /* \"#utility.yul\":1033:1095   */\n      or\n        /* \"#utility.yul\":1030:1118   */\n      iszero\n      tag_77\n      jumpi\n        /* \"#utility.yul\":1098:1116   */\n      tag_78\n      tag_48\n      jump\t// in\n    tag_78:\n        /* \"#utility.yul\":1030:1118   */\n    tag_77:\n        /* \"#utility.yul\":1138:1148   */\n      dup1\n        /* \"#utility.yul\":1134:1136   */\n      0x40\n        /* \"#utility.yul\":1127:1149   */\n      mstore\n        /* \"#utility.yul\":917:1155   */\n      pop\n        /* \"#utility.yul\":874:1155   */\n      pop\n      pop\n      jump\t// out\n        /* \"#utility.yul\":1161:1290   */\n    tag_50:\n        /* \"#utility.yul\":1195:1201   */\n      0x00\n        /* \"#utility.yul\":1222:1242   */\n      tag_80\n      tag_42\n      jump\t// in\n    tag_80:\n        /* \"#utility.yul\":1212:1242   */\n      swap1\n      pop\n        /* \"#utility.yul\":1251:1284   */\n      tag_81\n        /* \"#utility.yul\":1279:1283   */\n      dup3\n        /* \"#utility.yul\":1271:1277   */\n      dup3\n        /* \"#utility.yul\":1251:1284   */\n      tag_49\n      jump\t// in\n    tag_81:\n        /* \"#utility.yul\":1161:1290   */\n      swap2\n      swap1\n      pop\n      jump\t// out\n        /* \"#utility.yul\":1296:1604   */\n    tag_51:\n        /* \"#utility.yul\":1358:1362   */\n      0x00\n        /* \"#utility.yul\":1448:1466   */\n      0xffffffffffffffff\n        /* \"#utility.yul\":1440:1446   */\n      dup3\n        /* \"#utility.yul\":1437:1467   */\n      gt\n        /* \"#utility.yul\":1434:1490   */\n      iszero\n      tag_83\n      jumpi\n        /* \"#utility.yul\":1470:1488   */\n      tag_84\n      tag_48\n      jump\t// in\n    tag_84:\n        /* \"#utility.yul\":1434:1490   */\n    tag_83:\n        /* \"#utility.yul\":1508:1537   */\n      tag_85\n        /* \"#utility.yul\":1530:1536   */\n      dup3\n        /* \"#utility.yul\":1508:1537   */\n      tag_47\n      jump\t// in\n    tag_85:\n        /* \"#utility.yul\":1500:1537   */\n      swap1\n      pop\n        /* \"#utility.yul\":1592:1596   */\n      0x20\n        /* \"#utility.yul\":1586:1590   */\n      dup2\n        /* \"#utility.yul\":1582:1597   */\n      add\n        /* \"#utility.yul\":1574:1597   */\n      swap1\n      pop\n        /* \"#utility.yul\":1296:1604   */\n      swap2\n      swap1\n      pop\n      jump\t// out\n        /* \"#utility.yul\":1610:1756   */\n    tag_52:\n        /* \"#utility.yul\":1707:1713   */\n      dup3\n        /* \"#utility.yul\":1702:1705   */\n      dup2\n        /* \"#utility.yul\":1697:1700   */\n      dup4\n        /* \"#utility.yul\":1684:1714   */\n      calldatacopy\n        /* \"#utility.yul\":1748:1749   */\n      0x00\n        /* \"#utility.yul\":1739:1745   */\n      dup4\n        /* \"#utility.yul\":1734:1737   */\n      dup4\n        /* \"#utility.yul\":1730:1746   */\n      add\n        /* \"#utility.yul\":1723:1750   */\n      mstore\n        /* \"#utility.yul\":1610:1756   */\n      pop\n      pop\n      pop\n      jump\t// out\n        /* \"#utility.yul\":1762:2187   */\n    tag_53:\n        /* \"#utility.yul\":1840:1845   */\n      0x00\n        /* \"#utility.yul\":1865:1931   */\n      tag_88\n        /* \"#utility.yul\":1881:1930   */\n      tag_89\n        /* \"#utility.yul\":1923:1929   */\n      dup5\n        /* \"#utility.yul\":1881:1930   */\n      tag_51\n      jump\t// in\n    tag_89:\n        /* \"#utility.yul\":1865:1931   */\n      tag_50\n      jump\t// in\n    tag_88:\n        /* \"#utility.yul\":1856:1931   */\n      swap1\n      pop\n        /* \"#utility.yul\":1954:1960   */\n      dup3\n        /* \"#utility.yul\":1947:1952   */\n      dup2\n        /* \"#utility.yul\":1940:1961   */\n      mstore\n        /* \"#utility.yul\":1992:1996   */\n      0x20\n        /* \"#utility.yul\":1985:1990   */\n      dup2\n        /* \"#utility.yul\":1981:1997   */\n      add\n        /* \"#utility.yul\":2030:2033   */\n      dup5\n        /* \"#utility.yul\":2021:2027   */\n      dup5\n        /* \"#utility.yul\":2016:2019   */\n      dup5\n        /* \"#utility.yul\":2012:2028   */\n      add\n        /* \"#utility.yul\":2009:2034   */\n      gt\n        /* \"#utility.yul\":2006:2118   */\n      iszero\n      tag_90\n      jumpi\n        /* \"#utility.yul\":2037:2116   */\n      tag_91\n      tag_46\n      jump\t// in\n    tag_91:\n        /* \"#utility.yul\":2006:2118   */\n    tag_90:\n        /* \"#utility.yul\":2127:2181   */\n      tag_92\n        /* \"#utility.yul\":2174:2180   */\n      dup5\n        /* \"#utility.yul\":2169:2172   */\n      dup3\n        /* \"#utility.yul\":2164:2167   */\n      dup6\n        /* \"#utility.yul\":2127:2181   */\n      tag_52\n      jump\t// in\n    tag_92:\n        /* \"#utility.yul\":1846:2187   */\n      pop\n        /* \"#utility.yul\":1762:2187   */\n      swap4\n      swap3\n      pop\n      pop\n      pop\n      jump\t// out\n        /* \"#utility.yul\":2207:2547   */\n    tag_54:\n        /* \"#utility.yul\":2263:2268   */\n      0x00\n        /* \"#utility.yul\":2312:2315   */\n      dup3\n        /* \"#utility.yul\":2305:2309   */\n      0x1f\n        /* \"#utility.yul\":2297:2303   */\n      dup4\n        /* \"#utility.yul\":2293:2310   */\n      add\n        /* \"#utility.yul\":2289:2316   */\n      slt\n        /* \"#utility.yul\":2279:2401   */\n      tag_94\n      jumpi\n        /* \"#utility.yul\":2320:2399   */\n      tag_95\n      tag_45\n      jump\t// in\n    tag_95:\n        /* \"#utility.yul\":2279:2401   */\n    tag_94:\n        /* \"#utility.yul\":2437:2443   */\n      dup2\n        /* \"#utility.yul\":2424:2444   */\n      calldataload\n        /* \"#utility.yul\":2462:2541   */\n      tag_96\n        /* \"#utility.yul\":2537:2540   */\n      dup5\n        /* \"#utility.yul\":2529:2535   */\n      dup3\n        /* \"#utility.yul\":2522:2526   */\n      0x20\n        /* \"#utility.yul\":2514:2520   */\n      dup7\n        /* \"#utility.yul\":2510:2527   */\n      add\n        /* \"#utility.yul\":2462:2541   */\n      tag_53\n      jump\t// in\n    tag_96:\n        /* \"#utility.yul\":2453:2541   */\n      swap2\n      pop\n        /* \"#utility.yul\":2269:2547   */\n      pop\n        /* \"#utility.yul\":2207:2547   */\n      swap3\n      swap2\n      pop\n      pop\n      jump\t// out\n        /* \"#utility.yul\":2553:3387   */\n    tag_7:\n        /* \"#utility.yul\":2641:2647   */\n      0x00\n        /* \"#utility.yul\":2649:2655   */\n      dup1\n        /* \"#utility.yul\":2698:2700   */\n      0x40\n        /* \"#utility.yul\":2686:2695   */\n      dup4\n        /* \"#utility.yul\":2677:2684   */\n      dup6\n        /* \"#utility.yul\":2673:2696   */\n      sub\n        /* \"#utility.yul\":2669:2701   */\n      slt\n        /* \"#utility.yul\":2666:2785   */\n      iszero\n      tag_98\n      jumpi\n        /* \"#utility.yul\":2704:2783   */\n      tag_99\n      tag_43\n      jump\t// in\n    tag_99:\n        /* \"#utility.yul\":2666:2785   */\n    tag_98:\n        /* \"#utility.yul\":2852:2853   */\n      0x00\n        /* \"#utility.yul\":2841:2850   */\n      dup4\n        /* \"#utility.yul\":2837:2854   */\n      add\n        /* \"#utility.yul\":2824:2855   */\n      calldataload\n        /* \"#utility.yul\":2882:2900   */\n      0xffffffffffffffff\n        /* \"#utility.yul\":2874:2880   */\n      dup2\n        /* \"#utility.yul\":2871:2901   */\n      gt\n        /* \"#utility.yul\":2868:2985   */\n      iszero\n      tag_100\n      jumpi\n        /* \"#utility.yul\":2904:2983   */\n      tag_101\n      tag_44\n      jump\t// in\n    tag_101:\n        /* \"#utility.yul\":2868:2985   */\n    tag_100:\n        /* \"#utility.yul\":3009:3072   */\n      tag_102\n        /* \"#utility.yul\":3064:3071   */\n      dup6\n        /* \"#utility.yul\":3055:3061   */\n      dup3\n        /* \"#utility.yul\":3044:3053   */\n      dup7\n        /* \"#utility.yul\":3040:3062   */\n      add\n        /* \"#utility.yul\":3009:3072   */\n      tag_54\n      jump\t// in\n    tag_102:\n        /* \"#utility.yul\":2999:3072   */\n      swap3\n      pop\n        /* \"#utility.yul\":2795:3082   */\n      pop\n        /* \"#utility.yul\":3149:3151   */\n      0x20\n        /* \"#utility.yul\":3138:3147   */\n      dup4\n        /* \"#utility.yul\":3134:3152   */\n      add\n        /* \"#utility.yul\":3121:3153   */\n      calldataload\n        /* \"#utility.yul\":3180:3198   */\n      0xffffffffffffffff\n        /* \"#utility.yul\":3172:3178   */\n      dup2\n        /* \"#utility.yul\":3169:3199   */\n      gt\n        /* \"#utility.yul\":3166:3283   */\n      iszero\n      tag_103\n      jumpi\n        /* \"#utility.yul\":3202:3281   */\n      tag_104\n      tag_44\n      jump\t// in\n    tag_104:\n        /* \"#utility.yul\":3166:3283   */\n    tag_103:\n        /* \"#utility.yul\":3307:3370   */\n      tag_105\n        /* \"#utility.yul\":3362:3369   */\n      dup6\n        /* \"#utility.yul\":3353:3359   */\n      dup3\n        /* \"#utility.yul\":3342:3351   */\n      dup7\n        /* \"#utility.yul\":3338:3360   */\n      add\n        /* \"#utility.yul\":3307:3370   */\n      tag_54\n      jump\t// in\n    tag_105:\n        /* \"#utility.yul\":3297:3370   */\n      swap2\n      pop\n        /* \"#utility.yul\":3092:3380   */\n      pop\n        /* \"#utility.yul\":2553:3387   */\n      swap3\n      pop\n      swap3\n      swap1\n      pop\n      jump\t// out\n        /* \"#utility.yul\":3393:3483   */\n    tag_55:\n        /* \"#utility.yul\":3427:3434   */\n      0x00\n        /* \"#utility.yul\":3470:3475   */\n      dup2\n        /* \"#utility.yul\":3463:3476   */\n      iszero\n        /* \"#utility.yul\":3456:3477   */\n      iszero\n        /* \"#utility.yul\":3445:3477   */\n      swap1\n      pop\n        /* \"#utility.yul\":3393:3483   */\n      swap2\n      swap1\n      pop\n      jump\t// out\n        /* \"#utility.yul\":3489:3598   */\n    tag_56:\n        /* \"#utility.yul\":3570:3591   */\n      tag_108\n        /* \"#utility.yul\":3585:3590   */\n      dup2\n        /* \"#utility.yul\":3570:3591   */\n      tag_55\n      jump\t// in\n    tag_108:\n        /* \"#utility.yul\":3565:3568   */\n      dup3\n        /* \"#utility.yul\":3558:3592   */\n      mstore\n        /* \"#utility.yul\":3489:3598   */\n      pop\n      pop\n      jump\t// out\n        /* \"#utility.yul\":3604:3814   */\n    tag_10:\n        /* \"#utility.yul\":3691:3695   */\n      0x00\n        /* \"#utility.yul\":3729:3731   */\n      0x20\n        /* \"#utility.yul\":3718:3727   */\n      dup3\n        /* \"#utility.yul\":3714:3732   */\n      add\n        /* \"#utility.yul\":3706:3732   */\n      swap1\n      pop\n        /* \"#utility.yul\":3742:3807   */\n      tag_110\n        /* \"#utility.yul\":3804:3805   */\n      0x00\n        /* \"#utility.yul\":3793:3802   */\n      dup4\n        /* \"#utility.yul\":3789:3806   */\n      add\n        /* \"#utility.yul\":3780:3786   */\n      dup5\n        /* \"#utility.yul\":3742:3807   */\n      tag_56\n      jump\t// in\n    tag_110:\n        /* \"#utility.yul\":3604:3814   */\n      swap3\n      swap2\n      pop\n      pop\n      jump\t// out\n        /* \"#utility.yul\":3820:3897   */\n    tag_57:\n        /* \"#utility.yul\":3857:3864   */\n      0x00\n        /* \"#utility.yul\":3886:3891   */\n      dup2\n        /* \"#utility.yul\":3875:3891   */\n      swap1\n      pop\n        /* \"#utility.yul\":3820:3897   */\n      swap2\n      swap1\n      pop\n      jump\t// out\n        /* \"#utility.yul\":3903:4025   */\n    tag_58:\n        /* \"#utility.yul\":3976:4000   */\n      tag_113\n        /* \"#utility.yul\":3994:3999   */\n      dup2\n        /* \"#utility.yul\":3976:4000   */\n      tag_57\n      jump\t// in\n    tag_113:\n        /* \"#utility.yul\":3969:3974   */\n      dup2\n        /* \"#utility.yul\":3966:4001   */\n      eq\n        /* \"#utility.yul\":3956:4019   */\n      tag_114\n      jumpi\n        /* \"#utility.yul\":4015:4016   */\n      0x00\n        /* \"#utility.yul\":4012:4013   */\n      dup1\n        /* \"#utility.yul\":4005:4017   */\n      revert\n        /* \"#utility.yul\":3956:4019   */\n    tag_114:\n        /* \"#utility.yul\":3903:4025   */\n      pop\n      jump\t// out\n        /* \"#utility.yul\":4031:4170   */\n    tag_59:\n        /* \"#utility.yul\":4077:4082   */\n      0x00\n        /* \"#utility.yul\":4115:4121   */\n      dup2\n        /* \"#utility.yul\":4102:4122   */\n      calldataload\n        /* \"#utility.yul\":4093:4122   */\n      swap1\n      pop\n        /* \"#utility.yul\":4131:4164   */\n      tag_116\n        /* \"#utility.yul\":4158:4163   */\n      dup2\n        /* \"#utility.yul\":4131:4164   */\n      tag_58\n      jump\t// in\n    tag_116:\n        /* \"#utility.yul\":4031:4170   */\n      swap3\n      swap2\n      pop\n      pop\n      jump\t// out\n        /* \"#utility.yul\":4176:4975   */\n    tag_13:\n        /* \"#utility.yul\":4263:4269   */\n      0x00\n        /* \"#utility.yul\":4271:4277   */\n      dup1\n        /* \"#utility.yul\":4279:4285   */\n      0x00\n        /* \"#utility.yul\":4328:4330   */\n      0x60\n        /* \"#utility.yul\":4316:4325   */\n      dup5\n        /* \"#utility.yul\":4307:4314   */\n      dup7\n        /* \"#utility.yul\":4303:4326   */\n      sub\n        /* \"#utility.yul\":4299:4331   */\n      slt\n        /* \"#utility.yul\":4296:4415   */\n      iszero\n      tag_118\n      jumpi\n        /* \"#utility.yul\":4334:4413   */\n      tag_119\n      tag_43\n      jump\t// in\n    tag_119:\n        /* \"#utility.yul\":4296:4415   */\n    tag_118:\n        /* \"#utility.yul\":4454:4455   */\n      0x00\n        /* \"#utility.yul\":4479:4532   */\n      tag_120\n        /* \"#utility.yul\":4524:4531   */\n      dup7\n        /* \"#utility.yul\":4515:4521   */\n      dup3\n        /* \"#utility.yul\":4504:4513   */\n      dup8\n        /* \"#utility.yul\":4500:4522   */\n      add\n        /* \"#utility.yul\":4479:4532   */\n      tag_59\n      jump\t// in\n    tag_120:\n        /* \"#utility.yul\":4469:4532   */\n      swap4\n      pop\n        /* \"#utility.yul\":4425:4542   */\n      pop\n        /* \"#utility.yul\":4609:4611   */\n      0x20\n        /* \"#utility.yul\":4598:4607   */\n      dup5\n        /* \"#utility.yul\":4594:4612   */\n      add\n        /* \"#utility.yul\":4581:4613   */\n      calldataload\n        /* \"#utility.yul\":4640:4658   */\n      0xffffffffffffffff\n        /* \"#utility.yul\":4632:4638   */\n      dup2\n        /* \"#utility.yul\":4629:4659   */\n      gt\n        /* \"#utility.yul\":4626:4743   */\n      iszero\n      tag_121\n      jumpi\n        /* \"#utility.yul\":4662:4741   */\n      tag_122\n      tag_44\n      jump\t// in\n    tag_122:\n        /* \"#utility.yul\":4626:4743   */\n    tag_121:\n        /* \"#utility.yul\":4767:4830   */\n      tag_123\n        /* \"#utility.yul\":4822:4829   */\n      dup7\n        /* \"#utility.yul\":4813:4819   */\n      dup3\n        /* \"#utility.yul\":4802:4811   */\n      dup8\n        /* \"#utility.yul\":4798:4820   */\n      add\n        /* \"#utility.yul\":4767:4830   */\n      tag_54\n      jump\t// in\n    tag_123:\n        /* \"#utility.yul\":4757:4830   */\n      swap3\n      pop\n        /* \"#utility.yul\":4552:4840   */\n      pop\n        /* \"#utility.yul\":4879:4881   */\n      0x40\n        /* \"#utility.yul\":4905:4958   */\n      tag_124\n        /* \"#utility.yul\":4950:4957   */\n      dup7\n        /* \"#utility.yul\":4941:4947   */\n      dup3\n        /* \"#utility.yul\":4930:4939   */\n      dup8\n        /* \"#utility.yul\":4926:4948   */\n      add\n        /* \"#utility.yul\":4905:4958   */\n      tag_59\n      jump\t// in\n    tag_124:\n        /* \"#utility.yul\":4895:4958   */\n      swap2\n      pop\n        /* \"#utility.yul\":4850:4968   */\n      pop\n        /* \"#utility.yul\":4176:4975   */\n      swap3\n      pop\n      swap3\n      pop\n      swap3\n      jump\t// out\n        /* \"#utility.yul\":4981:5099   */\n    tag_60:\n        /* \"#utility.yul\":5068:5092   */\n      tag_126\n        /* \"#utility.yul\":5086:5091   */\n      dup2\n        /* \"#utility.yul\":5068:5092   */\n      tag_57\n      jump\t// in\n    tag_126:\n        /* \"#utility.yul\":5063:5066   */\n      dup3\n        /* \"#utility.yul\":5056:5093   */\n      mstore\n        /* \"#utility.yul\":4981:5099   */\n      pop\n      pop\n      jump\t// out\n        /* \"#utility.yul\":5105:5327   */\n    tag_16:\n        /* \"#utility.yul\":5198:5202   */\n      0x00\n        /* \"#utility.yul\":5236:5238   */\n      0x20\n        /* \"#utility.yul\":5225:5234   */\n      dup3\n        /* \"#utility.yul\":5221:5239   */\n      add\n        /* \"#utility.yul\":5213:5239   */\n      swap1\n      pop\n        /* \"#utility.yul\":5249:5320   */\n      tag_128\n        /* \"#utility.yul\":5317:5318   */\n      0x00\n        /* \"#utility.yul\":5306:5315   */\n      dup4\n        /* \"#utility.yul\":5302:5319   */\n      add\n        /* \"#utility.yul\":5293:5299   */\n      dup5\n        /* \"#utility.yul\":5249:5320   */\n      tag_60\n      jump\t// in\n    tag_128:\n        /* \"#utility.yul\":5105:5327   */\n      swap3\n      swap2\n      pop\n      pop\n      jump\t// out\n        /* \"#utility.yul\":5333:5432   */\n    tag_61:\n        /* \"#utility.yul\":5385:5391   */\n      0x00\n        /* \"#utility.yul\":5419:5424   */\n      dup2\n        /* \"#utility.yul\":5413:5425   */\n      mload\n        /* \"#utility.yul\":5403:5425   */\n      swap1\n      pop\n        /* \"#utility.yul\":5333:5432   */\n      swap2\n      swap1\n      pop\n      jump\t// out\n        /* \"#utility.yul\":5438:5586   */\n    tag_62:\n        /* \"#utility.yul\":5540:5551   */\n      0x00\n        /* \"#utility.yul\":5577:5580   */\n      dup2\n        /* \"#utility.yul\":5562:5580   */\n      swap1\n      pop\n        /* \"#utility.yul\":5438:5586   */\n      swap3\n      swap2\n      pop\n      pop\n      jump\t// out\n        /* \"#utility.yul\":5592:5838   */\n    tag_63:\n        /* \"#utility.yul\":5673:5674   */\n      0x00\n        /* \"#utility.yul\":5683:5796   */\n    tag_132:\n        /* \"#utility.yul\":5697:5703   */\n      dup4\n        /* \"#utility.yul\":5694:5695   */\n      dup2\n        /* \"#utility.yul\":5691:5704   */\n      lt\n        /* \"#utility.yul\":5683:5796   */\n      iszero\n      tag_134\n      jumpi\n        /* \"#utility.yul\":5782:5783   */\n      dup1\n        /* \"#utility.yul\":5777:5780   */\n      dup3\n        /* \"#utility.yul\":5773:5784   */\n      add\n        /* \"#utility.yul\":5767:5785   */\n      mload\n        /* \"#utility.yul\":5763:5764   */\n      dup2\n        /* \"#utility.yul\":5758:5761   */\n      dup5\n        /* \"#utility.yul\":5754:5765   */\n      add\n        /* \"#utility.yul\":5747:5786   */\n      mstore\n        /* \"#utility.yul\":5719:5721   */\n      0x20\n        /* \"#utility.yul\":5716:5717   */\n      dup2\n        /* \"#utility.yul\":5712:5722   */\n      add\n        /* \"#utility.yul\":5707:5722   */\n      swap1\n      pop\n        /* \"#utility.yul\":5683:5796   */\n      jump(tag_132)\n    tag_134:\n        /* \"#utility.yul\":5830:5831   */\n      0x00\n        /* \"#utility.yul\":5821:5827   */\n      dup5\n        /* \"#utility.yul\":5816:5819   */\n      dup5\n        /* \"#utility.yul\":5812:5828   */\n      add\n        /* \"#utility.yul\":5805:5832   */\n      mstore\n        /* \"#utility.yul\":5654:5838   */\n      pop\n        /* \"#utility.yul\":5592:5838   */\n      pop\n      pop\n      pop\n      jump\t// out\n        /* \"#utility.yul\":5844:6234   */\n    tag_64:\n        /* \"#utility.yul\":5950:5953   */\n      0x00\n        /* \"#utility.yul\":5978:6017   */\n      tag_136\n        /* \"#utility.yul\":6011:6016   */\n      dup3\n        /* \"#utility.yul\":5978:6017   */\n      tag_61\n      jump\t// in\n    tag_136:\n        /* \"#utility.yul\":6033:6122   */\n      tag_137\n        /* \"#utility.yul\":6115:6121   */\n      dup2\n        /* \"#utility.yul\":6110:6113   */\n      dup6\n        /* \"#utility.yul\":6033:6122   */\n      tag_62\n      jump\t// in\n    tag_137:\n        /* \"#utility.yul\":6026:6122   */\n      swap4\n      pop\n        /* \"#utility.yul\":6131:6196   */\n      tag_138\n        /* \"#utility.yul\":6189:6195   */\n      dup2\n        /* \"#utility.yul\":6184:6187   */\n      dup6\n        /* \"#utility.yul\":6177:6181   */\n      0x20\n        /* \"#utility.yul\":6170:6175   */\n      dup7\n        /* \"#utility.yul\":6166:6182   */\n      add\n        /* \"#utility.yul\":6131:6196   */\n      tag_63\n      jump\t// in\n    tag_138:\n        /* \"#utility.yul\":6221:6227   */\n      dup1\n        /* \"#utility.yul\":6216:6219   */\n      dup5\n        /* \"#utility.yul\":6212:6228   */\n      add\n        /* \"#utility.yul\":6205:6228   */\n      swap2\n      pop\n        /* \"#utility.yul\":5954:6234   */\n      pop\n        /* \"#utility.yul\":5844:6234   */\n      swap3\n      swap2\n      pop\n      pop\n      jump\t// out\n        /* \"#utility.yul\":6240:6515   */\n    tag_19:\n        /* \"#utility.yul\":6372:6375   */\n      0x00\n        /* \"#utility.yul\":6394:6489   */\n      tag_140\n        /* \"#utility.yul\":6485:6488   */\n      dup3\n        /* \"#utility.yul\":6476:6482   */\n      dup5\n        /* \"#utility.yul\":6394:6489   */\n      tag_64\n      jump\t// in\n    tag_140:\n        /* \"#utility.yul\":6387:6489   */\n      swap2\n      pop\n        /* \"#utility.yul\":6506:6509   */\n      dup2\n        /* \"#utility.yul\":6499:6509   */\n      swap1\n      pop\n        /* \"#utility.yul\":6240:6515   */\n      swap3\n      swap2\n      pop\n      pop\n      jump\t// out\n        /* \"#utility.yul\":6521:6701   */\n    tag_65:\n        /* \"#utility.yul\":6569:6646   */\n      0x4e487b7100000000000000000000000000000000000000000000000000000000\n        /* \"#utility.yul\":6566:6567   */\n      0x00\n        /* \"#utility.yul\":6559:6647   */\n      mstore\n        /* \"#utility.yul\":6666:6670   */\n      0x11\n        /* \"#utility.yul\":6663:6664   */\n      0x04\n        /* \"#utility.yul\":6656:6671   */\n      mstore\n        /* \"#utility.yul\":6690:6694   */\n      0x24\n        /* \"#utility.yul\":6687:6688   */\n      0x00\n        /* \"#utility.yul\":6680:6695   */\n      revert\n        /* \"#utility.yul\":6707:6898   */\n    tag_26:\n        /* \"#utility.yul\":6747:6750   */\n      0x00\n        /* \"#utility.yul\":6766:6786   */\n      tag_143\n        /* \"#utility.yul\":6784:6785   */\n      dup3\n        /* \"#utility.yul\":6766:6786   */\n      tag_57\n      jump\t// in\n    tag_143:\n        /* \"#utility.yul\":6761:6786   */\n      swap2\n      pop\n        /* \"#utility.yul\":6800:6820   */\n      tag_144\n        /* \"#utility.yul\":6818:6819   */\n      dup4\n        /* \"#utility.yul\":6800:6820   */\n      tag_57\n      jump\t// in\n    tag_144:\n        /* \"#utility.yul\":6795:6820   */\n      swap3\n      pop\n        /* \"#utility.yul\":6843:6844   */\n      dup3\n        /* \"#utility.yul\":6840:6841   */\n      dup3\n        /* \"#utility.yul\":6836:6845   */\n      add\n        /* \"#utility.yul\":6829:6845   */\n      swap1\n      pop\n        /* \"#utility.yul\":6864:6867   */\n      dup1\n        /* \"#utility.yul\":6861:6862   */\n      dup3\n        /* \"#utility.yul\":6858:6868   */\n      gt\n        /* \"#utility.yul\":6855:6891   */\n      iszero\n      tag_145\n      jumpi\n        /* \"#utility.yul\":6871:6889   */\n      tag_146\n      tag_65\n      jump\t// in\n    tag_146:\n        /* \"#utility.yul\":6855:6891   */\n    tag_145:\n        /* \"#utility.yul\":6707:6898   */\n      swap3\n      swap2\n      pop\n      pop\n      jump\t// out\n        /* \"#utility.yul\":6904:7098   */\n    tag_31:\n        /* \"#utility.yul\":6944:6948   */\n      0x00\n        /* \"#utility.yul\":6964:6984   */\n      tag_148\n        /* \"#utility.yul\":6982:6983   */\n      dup3\n        /* \"#utility.yul\":6964:6984   */\n      tag_57\n      jump\t// in\n    tag_148:\n        /* \"#utility.yul\":6959:6984   */\n      swap2\n      pop\n        /* \"#utility.yul\":6998:7018   */\n      tag_149\n        /* \"#utility.yul\":7016:7017   */\n      dup4\n        /* \"#utility.yul\":6998:7018   */\n      tag_57\n      jump\t// in\n    tag_149:\n        /* \"#utility.yul\":6993:7018   */\n      swap3\n      pop\n        /* \"#utility.yul\":7042:7043   */\n      dup3\n        /* \"#utility.yul\":7039:7040   */\n      dup3\n        /* \"#utility.yul\":7035:7044   */\n      sub\n        /* \"#utility.yul\":7027:7044   */\n      swap1\n      pop\n        /* \"#utility.yul\":7066:7067   */\n      dup2\n        /* \"#utility.yul\":7060:7064   */\n      dup2\n        /* \"#utility.yul\":7057:7068   */\n      gt\n        /* \"#utility.yul\":7054:7091   */\n      iszero\n      tag_150\n      jumpi\n        /* \"#utility.yul\":7071:7089   */\n      tag_151\n      tag_65\n      jump\t// in\n    tag_151:\n        /* \"#utility.yul\":7054:7091   */\n    tag_150:\n        /* \"#utility.yul\":6904:7098   */\n      swap3\n      swap2\n      pop\n      pop\n      jump\t// out\n        /* \"#utility.yul\":7104:7514   */\n    tag_36:\n        /* \"#utility.yul\":7144:7151   */\n      0x00\n        /* \"#utility.yul\":7167:7187   */\n      tag_153\n        /* \"#utility.yul\":7185:7186   */\n      dup3\n        /* \"#utility.yul\":7167:7187   */\n      tag_57\n      jump\t// in\n    tag_153:\n        /* \"#utility.yul\":7162:7187   */\n      swap2\n      pop\n        /* \"#utility.yul\":7201:7221   */\n      tag_154\n        /* \"#utility.yul\":7219:7220   */\n      dup4\n        /* \"#utility.yul\":7201:7221   */\n      tag_57\n      jump\t// in\n    tag_154:\n        /* \"#utility.yul\":7196:7221   */\n      swap3\n      pop\n        /* \"#utility.yul\":7256:7257   */\n      dup3\n        /* \"#utility.yul\":7253:7254   */\n      dup3\n        /* \"#utility.yul\":7249:7258   */\n      mul\n        /* \"#utility.yul\":7278:7308   */\n      tag_155\n        /* \"#utility.yul\":7296:7307   */\n      dup2\n        /* \"#utility.yul\":7278:7308   */\n      tag_57\n      jump\t// in\n    tag_155:\n        /* \"#utility.yul\":7267:7308   */\n      swap2\n      pop\n        /* \"#utility.yul\":7457:7458   */\n      dup3\n        /* \"#utility.yul\":7448:7455   */\n      dup3\n        /* \"#utility.yul\":7444:7459   */\n      div\n        /* \"#utility.yul\":7441:7442   */\n      dup5\n        /* \"#utility.yul\":7438:7460   */\n      eq\n        /* \"#utility.yul\":7418:7419   */\n      dup4\n        /* \"#utility.yul\":7411:7420   */\n      iszero\n        /* \"#utility.yul\":7391:7474   */\n      or\n        /* \"#utility.yul\":7368:7507   */\n      tag_156\n      jumpi\n        /* \"#utility.yul\":7487:7505   */\n      tag_157\n      tag_65\n      jump\t// in\n    tag_157:\n        /* \"#utility.yul\":7368:7507   */\n    tag_156:\n        /* \"#utility.yul\":7152:7514   */\n      pop\n        /* \"#utility.yul\":7104:7514   */\n      swap3\n      swap2\n      pop\n      pop\n      jump\t// out\n        /* \"#utility.yul\":7520:7700   */\n    tag_66:\n        /* \"#utility.yul\":7568:7645   */\n      0x4e487b7100000000000000000000000000000000000000000000000000000000\n        /* \"#utility.yul\":7565:7566   */\n      0x00\n        /* \"#utility.yul\":7558:7646   */\n      mstore\n        /* \"#utility.yul\":7665:7669   */\n      0x12\n        /* \"#utility.yul\":7662:7663   */\n      0x04\n        /* \"#utility.yul\":7655:7670   */\n      mstore\n        /* \"#utility.yul\":7689:7693   */\n      0x24\n        /* \"#utility.yul\":7686:7687   */\n      0x00\n        /* \"#utility.yul\":7679:7694   */\n      revert\n        /* \"#utility.yul\":7706:7891   */\n    tag_41:\n        /* \"#utility.yul\":7746:7747   */\n      0x00\n        /* \"#utility.yul\":7763:7783   */\n      tag_160\n        /* \"#utility.yul\":7781:7782   */\n      dup3\n        /* \"#utility.yul\":7763:7783   */\n      tag_57\n      jump\t// in\n    tag_160:\n        /* \"#utility.yul\":7758:7783   */\n      swap2\n      pop\n        /* \"#utility.yul\":7797:7817   */\n      tag_161\n        /* \"#utility.yul\":7815:7816   */\n      dup4\n        /* \"#utility.yul\":7797:7817   */\n      tag_57\n      jump\t// in\n    tag_161:\n        /* \"#utility.yul\":7792:7817   */\n      swap3\n      pop\n        /* \"#utility.yul\":7836:7837   */\n      dup3\n        /* \"#utility.yul\":7826:7861   */\n      tag_162\n      jumpi\n        /* \"#utility.yul\":7841:7859   */\n      tag_163\n      tag_66\n      jump\t// in\n    tag_163:\n        /* \"#utility.yul\":7826:7861   */\n    tag_162:\n        /* \"#utility.yul\":7883:7884   */\n      dup3\n        /* \"#utility.yul\":7880:7881   */\n      dup3\n        /* \"#utility.yul\":7876:7885   */\n      div\n        /* \"#utility.yul\":7871:7885   */\n      swap1\n      pop\n        /* \"#utility.yul\":7706:7891   */\n      swap3\n      swap2\n      pop\n      pop\n      jump\t// out\n\n    auxdata: 0xa2646970667358221220d26e386814dc00606573a880e371d946af722d47c5f52b13cd761e1a8243692564736f6c63430008120033\n}\n",
				"bytecode": {
					"linkReferences": {},
					"object": "608060405234801561001057600080fd5b5061073b806100206000396000f3fe608060405234801561001057600080fd5b50600436106100365760003560e01c8063afc3342e1461003b578063cbc028211461006b575b600080fd5b610055600480360381019061005091906103c7565b61009b565b604051610062919061045a565b60405180910390f35b610085600480360381019061008091906104ab565b610104565b6040516100929190610529565b60405180910390f35b6000816040516020016100ae91906105b5565b60405160208183030381529060405280519060200120836040516020016100d591906105b5565b60405160208183030381529060405280519060200120036100f957600190506100fe565b600090505b92915050565b600080610146846040518060400160405280600181526020017f2b0000000000000000000000000000000000000000000000000000000000000081525061009b565b1561015e57828561015791906105fb565b9050610262565b61019d846040518060400160405280600181526020017f2d0000000000000000000000000000000000000000000000000000000000000081525061009b565b156101b55782856101ae919061062f565b9050610261565b6101f4846040518060400160405280600181526020017f2a0000000000000000000000000000000000000000000000000000000000000081525061009b565b1561020c5782856102059190610663565b9050610260565b61024b846040518060400160405280600181526020017f2f0000000000000000000000000000000000000000000000000000000000000081525061009b565b1561025f57828561025c91906106d4565b90505b5b5b5b809150509392505050565b6000604051905090565b600080fd5b600080fd5b600080fd5b600080fd5b6000601f19601f8301169050919050565b7f4e487b7100000000000000000000000000000000000000000000000000000000600052604160045260246000fd5b6102d48261028b565b810181811067ffffffffffffffff821117156102f3576102f261029c565b5b80604052505050565b600061030661026d565b905061031282826102cb565b919050565b600067ffffffffffffffff8211156103325761033161029c565b5b61033b8261028b565b9050602081019050919050565b82818337600083830152505050565b600061036a61036584610317565b6102fc565b90508281526020810184848401111561038657610385610286565b5b610391848285610348565b509392505050565b600082601f8301126103ae576103ad610281565b5b81356103be848260208601610357565b91505092915050565b600080604083850312156103de576103dd610277565b5b600083013567ffffffffffffffff8111156103fc576103fb61027c565b5b61040885828601610399565b925050602083013567ffffffffffffffff8111156104295761042861027c565b5b61043585828601610399565b9150509250929050565b60008115159050919050565b6104548161043f565b82525050565b600060208201905061046f600083018461044b565b92915050565b6000819050919050565b61048881610475565b811461049357600080fd5b50565b6000813590506104a58161047f565b92915050565b6000806000606084860312156104c4576104c3610277565b5b60006104d286828701610496565b935050602084013567ffffffffffffffff8111156104f3576104f261027c565b5b6104ff86828701610399565b925050604061051086828701610496565b9150509250925092565b61052381610475565b82525050565b600060208201905061053e600083018461051a565b92915050565b600081519050919050565b600081905092915050565b60005b8381101561057857808201518184015260208101905061055d565b60008484015250505050565b600061058f82610544565b610599818561054f565b93506105a981856020860161055a565b80840191505092915050565b60006105c18284610584565b915081905092915050565b7f4e487b7100000000000000000000000000000000000000000000000000000000600052601160045260246000fd5b600061060682610475565b915061061183610475565b9250828201905080821115610629576106286105cc565b5b92915050565b600061063a82610475565b915061064583610475565b925082820390508181111561065d5761065c6105cc565b5b92915050565b600061066e82610475565b915061067983610475565b925082820261068781610475565b9150828204841483151761069e5761069d6105cc565b5b5092915050565b7f4e487b7100000000000000000000000000000000000000000000000000000000600052601260045260246000fd5b60006106df82610475565b91506106ea83610475565b9250826106fa576106f96106a5565b5b82820490509291505056fea2646970667358221220d26e386814dc00606573a880e371d946af722d47c5f52b13cd761e1a8243692564736f6c63430008120033",
					"opcodes": "PUSH1 0x80 PUSH1 0x40 MSTORE CALLVALUE DUP1 ISZERO PUSH2 0x10 JUMPI PUSH1 0x0 DUP1 REVERT JUMPDEST POP PUSH2 0x73B DUP1 PUSH2 0x20 PUSH1 0x0 CODECOPY PUSH1 0x0 RETURN INVALID PUSH1 0x80 PUSH1 0x40 MSTORE CALLVALUE DUP1 ISZERO PUSH2 0x10 JUMPI PUSH1 0x0 DUP1 REVERT JUMPDEST POP PUSH1 0x4 CALLDATASIZE LT PUSH2 0x36 JUMPI PUSH1 0x0 CALLDATALOAD PUSH1 0xE0 SHR DUP1 PUSH4 0xAFC3342E EQ PUSH2 0x3B JUMPI DUP1 PUSH4 0xCBC02821 EQ PUSH2 0x6B JUMPI JUMPDEST PUSH1 0x0 DUP1 REVERT JUMPDEST PUSH2 0x55 PUSH1 0x4 DUP1 CALLDATASIZE SUB DUP2 ADD SWAP1 PUSH2 0x50 SWAP2 SWAP1 PUSH2 0x3C7 JUMP JUMPDEST PUSH2 0x9B JUMP JUMPDEST PUSH1 0x40 MLOAD PUSH2 0x62 SWAP2 SWAP1 PUSH2 0x45A JUMP JUMPDEST PUSH1 0x40 MLOAD DUP1 SWAP2 SUB SWAP1 RETURN JUMPDEST PUSH2 0x85 PUSH1 0x4 DUP1 CALLDATASIZE SUB DUP2 ADD SWAP1 PUSH2 0x80 SWAP2 SWAP1 PUSH2 0x4AB JUMP JUMPDEST PUSH2 0x104 JUMP JUMPDEST PUSH1 0x40 MLOAD PUSH2 0x92 SWAP2 SWAP1 PUSH2 0x529 JUMP JUMPDEST PUSH1 0x40 MLOAD DUP1 SWAP2 SUB SWAP1 RETURN JUMPDEST PUSH1 0x0 DUP2 PUSH1 0x40 MLOAD PUSH1 0x20 ADD PUSH2 0xAE SWAP2 SWAP1 PUSH2 0x5B5 JUMP JUMPDEST PUSH1 0x40 MLOAD PUSH1 0x20 DUP2 DUP4 SUB SUB DUP2 MSTORE SWAP1 PUSH1 0x40 MSTORE DUP1 MLOAD SWAP1 PUSH1 0x20 ADD KECCAK256 DUP4 PUSH1 0x40 MLOAD PUSH1 0x20 ADD PUSH2 0xD5 SWAP2 SWAP1 PUSH2 0x5B5 JUMP JUMPDEST PUSH1 0x40 MLOAD PUSH1 0x20 DUP2 DUP4 SUB SUB DUP2 MSTORE SWAP1 PUSH1 0x40 MSTORE DUP1 MLOAD SWAP1 PUSH1 0x20 ADD KECCAK256 SUB PUSH2 0xF9 JUMPI PUSH1 0x1 SWAP1 POP PUSH2 0xFE JUMP JUMPDEST PUSH1 0x0 SWAP1 POP JUMPDEST SWAP3 SWAP2 POP POP JUMP JUMPDEST PUSH1 0x0 DUP1 PUSH2 0x146 DUP5 PUSH1 0x40 MLOAD DUP1 PUSH1 0x40 ADD PUSH1 0x40 MSTORE DUP1 PUSH1 0x1 DUP2 MSTORE PUSH1 0x20 ADD PUSH32 0x2B00000000000000000000000000000000000000000000000000000000000000 DUP2 MSTORE POP PUSH2 0x9B JUMP JUMPDEST ISZERO PUSH2 0x15E JUMPI DUP3 DUP6 PUSH2 0x157 SWAP2 SWAP1 PUSH2 0x5FB JUMP JUMPDEST SWAP1 POP PUSH2 0x262 JUMP JUMPDEST PUSH2 0x19D DUP5 PUSH1 0x40 MLOAD DUP1 PUSH1 0x40 ADD PUSH1 0x40 MSTORE DUP1 PUSH1 0x1 DUP2 MSTORE PUSH1 0x20 ADD PUSH32 0x2D00000000000000000000000000000000000000000000000000000000000000 DUP2 MSTORE POP PUSH2 0x9B JUMP JUMPDEST ISZERO PUSH2 0x1B5 JUMPI DUP3 DUP6 PUSH2 0x1AE SWAP2 SWAP1 PUSH2 0x62F JUMP JUMPDEST SWAP1 POP PUSH2 0x261 JUMP JUMPDEST PUSH2 0x1F4 DUP5 PUSH1 0x40 MLOAD DUP1 PUSH1 0x40 ADD PUSH1 0x40 MSTORE DUP1 PUSH1 0x1 DUP2 MSTORE PUSH1 0x20 ADD PUSH32 0x2A00000000000000000000000000000000000000000000000000000000000000 DUP2 MSTORE POP PUSH2 0x9B JUMP JUMPDEST ISZERO PUSH2 0x20C JUMPI DUP3 DUP6 PUSH2 0x205 SWAP2 SWAP1 PUSH2 0x663 JUMP JUMPDEST SWAP1 POP PUSH2 0x260 JUMP JUMPDEST PUSH2 0x24B DUP5 PUSH1 0x40 MLOAD DUP1 PUSH1 0x40 ADD PUSH1 0x40 MSTORE DUP1 PUSH1 0x1 DUP2 MSTORE PUSH1 0x20 ADD PUSH32 0x2F00000000000000000000000000000000000000000000000000000000000000 DUP2 MSTORE POP PUSH2 0x9B JUMP JUMPDEST ISZERO PUSH2 0x25F JUMPI DUP3 DUP6 PUSH2 0x25C SWAP2 SWAP1 PUSH2 0x6D4 JUMP JUMPDEST SWAP1 POP JUMPDEST JUMPDEST JUMPDEST JUMPDEST DUP1 SWAP2 POP POP SWAP4 SWAP3 POP POP POP JUMP JUMPDEST PUSH1 0x0 PUSH1 0x40 MLOAD SWAP1 POP SWAP1 JUMP JUMPDEST PUSH1 0x0 DUP1 REVERT JUMPDEST PUSH1 0x0 DUP1 REVERT JUMPDEST PUSH1 0x0 DUP1 REVERT JUMPDEST PUSH1 0x0 DUP1 REVERT JUMPDEST PUSH1 0x0 PUSH1 0x1F NOT PUSH1 0x1F DUP4 ADD AND SWAP1 POP SWAP2 SWAP1 POP JUMP JUMPDEST PUSH32 0x4E487B7100000000000000000000000000000000000000000000000000000000 PUSH1 0x0 MSTORE PUSH1 0x41 PUSH1 0x4 MSTORE PUSH1 0x24 PUSH1 0x0 REVERT JUMPDEST PUSH2 0x2D4 DUP3 PUSH2 0x28B JUMP JUMPDEST DUP2 ADD DUP2 DUP2 LT PUSH8 0xFFFFFFFFFFFFFFFF DUP3 GT OR ISZERO PUSH2 0x2F3 JUMPI PUSH2 0x2F2 PUSH2 0x29C JUMP JUMPDEST JUMPDEST DUP1 PUSH1 0x40 MSTORE POP POP POP JUMP JUMPDEST PUSH1 0x0 PUSH2 0x306 PUSH2 0x26D JUMP JUMPDEST SWAP1 POP PUSH2 0x312 DUP3 DUP3 PUSH2 0x2CB JUMP JUMPDEST SWAP2 SWAP1 POP JUMP JUMPDEST PUSH1 0x0 PUSH8 0xFFFFFFFFFFFFFFFF DUP3 GT ISZERO PUSH2 0x332 JUMPI PUSH2 0x331 PUSH2 0x29C JUMP JUMPDEST JUMPDEST PUSH2 0x33B DUP3 PUSH2 0x28B JUMP JUMPDEST SWAP1 POP PUSH1 0x20 DUP2 ADD SWAP1 POP SWAP2 SWAP1 POP JUMP JUMPDEST DUP3 DUP2 DUP4 CALLDATACOPY PUSH1 0x0 DUP4 DUP4 ADD MSTORE POP POP POP JUMP JUMPDEST PUSH1 0x0 PUSH2 0x36A PUSH2 0x365 DUP5 PUSH2 0x317 JUMP JUMPDEST PUSH2 0x2FC JUMP JUMPDEST SWAP1 POP DUP3 DUP2 MSTORE PUSH1 0x20 DUP2 ADD DUP5 DUP5 DUP5 ADD GT ISZERO PUSH2 0x386 JUMPI PUSH2 0x385 PUSH2 0x286 JUMP JUMPDEST JUMPDEST PUSH2 0x391 DUP5 DUP3 DUP6 PUSH2 0x348 JUMP JUMPDEST POP SWAP4 SWAP3 POP POP POP JUMP JUMPDEST PUSH1 0x0 DUP3 PUSH1 0x1F DUP4 ADD SLT PUSH2 0x3AE JUMPI PUSH2 0x3AD PUSH2 0x281 JUMP JUMPDEST JUMPDEST DUP2 CALLDATALOAD PUSH2 0x3BE DUP5 DUP3 PUSH1 0x20 DUP7 ADD PUSH2 0x357 JUMP JUMPDEST SWAP2 POP POP SWAP3 SWAP2 POP POP JUMP JUMPDEST PUSH1 0x0 DUP1 PUSH1 0x40 DUP4 DUP6 SUB SLT ISZERO PUSH2 0x3DE JUMPI PUSH2 0x3DD PUSH2 0x277 JUMP JUMPDEST JUMPDEST PUSH1 0x0 DUP4 ADD CALLDATALOAD PUSH8 0xFFFFFFFFFFFFFFFF DUP2 GT ISZERO PUSH2 0x3FC JUMPI PUSH2 0x3FB PUSH2 0x27C JUMP JUMPDEST JUMPDEST PUSH2 0x408 DUP6 DUP3 DUP7 ADD PUSH2 0x399 JUMP JUMPDEST SWAP3 POP POP PUSH1 0x20 DUP4 ADD CALLDATALOAD PUSH8 0xFFFFFFFFFFFFFFFF DUP2 GT ISZERO PUSH2 0x429 JUMPI PUSH2 0x428 PUSH2 0x27C JUMP JUMPDEST JUMPDEST PUSH2 0x435 DUP6 DUP3 DUP7 ADD PUSH2 0x399 JUMP JUMPDEST SWAP2 POP POP SWAP3 POP SWAP3 SWAP1 POP JUMP JUMPDEST PUSH1 0x0 DUP2 ISZERO ISZERO SWAP1 POP SWAP2 SWAP1 POP JUMP JUMPDEST PUSH2 0x454 DUP2 PUSH2 0x43F JUMP JUMPDEST DUP3 MSTORE POP POP JUMP JUMPDEST PUSH1 0x0 PUSH1 0x20 DUP3 ADD SWAP1 POP PUSH2 0x46F PUSH1 0x0 DUP4 ADD DUP5 PUSH2 0x44B JUMP JUMPDEST SWAP3 SWAP2 POP POP JUMP JUMPDEST PUSH1 0x0 DUP2 SWAP1 POP SWAP2 SWAP1 POP JUMP JUMPDEST PUSH2 0x488 DUP2 PUSH2 0x475 JUMP JUMPDEST DUP2 EQ PUSH2 0x493 JUMPI PUSH1 0x0 DUP1 REVERT JUMPDEST POP JUMP JUMPDEST PUSH1 0x0 DUP2 CALLDATALOAD SWAP1 POP PUSH2 0x4A5 DUP2 PUSH2 0x47F JUMP JUMPDEST SWAP3 SWAP2 POP POP JUMP JUMPDEST PUSH1 0x0 DUP1 PUSH1 0x0 PUSH1 0x60 DUP5 DUP7 SUB SLT ISZERO PUSH2 0x4C4 JUMPI PUSH2 0x4C3 PUSH2 0x277 JUMP JUMPDEST JUMPDEST PUSH1 0x0 PUSH2 0x4D2 DUP7 DUP3 DUP8 ADD PUSH2 0x496 JUMP JUMPDEST SWAP4 POP POP PUSH1 0x20 DUP5 ADD CALLDATALOAD PUSH8 0xFFFFFFFFFFFFFFFF DUP2 GT ISZERO PUSH2 0x4F3 JUMPI PUSH2 0x4F2 PUSH2 0x27C JUMP JUMPDEST JUMPDEST PUSH2 0x4FF DUP7 DUP3 DUP8 ADD PUSH2 0x399 JUMP JUMPDEST SWAP3 POP POP PUSH1 0x40 PUSH2 0x510 DUP7 DUP3 DUP8 ADD PUSH2 0x496 JUMP JUMPDEST SWAP2 POP POP SWAP3 POP SWAP3 POP SWAP3 JUMP JUMPDEST PUSH2 0x523 DUP2 PUSH2 0x475 JUMP JUMPDEST DUP3 MSTORE POP POP JUMP JUMPDEST PUSH1 0x0 PUSH1 0x20 DUP3 ADD SWAP1 POP PUSH2 0x53E PUSH1 0x0 DUP4 ADD DUP5 PUSH2 0x51A JUMP JUMPDEST SWAP3 SWAP2 POP POP JUMP JUMPDEST PUSH1 0x0 DUP2 MLOAD SWAP1 POP SWAP2 SWAP1 POP JUMP JUMPDEST PUSH1 0x0 DUP2 SWAP1 POP SWAP3 SWAP2 POP POP JUMP JUMPDEST PUSH1 0x0 JUMPDEST DUP4 DUP2 LT ISZERO PUSH2 0x578 JUMPI DUP1 DUP3 ADD MLOAD DUP2 DUP5 ADD MSTORE PUSH1 0x20 DUP2 ADD SWAP1 POP PUSH2 0x55D JUMP JUMPDEST PUSH1 0x0 DUP5 DUP5 ADD MSTORE POP POP POP POP JUMP JUMPDEST PUSH1 0x0 PUSH2 0x58F DUP3 PUSH2 0x544 JUMP JUMPDEST PUSH2 0x599 DUP2 DUP6 PUSH2 0x54F JUMP JUMPDEST SWAP4 POP PUSH2 0x5A9 DUP2 DUP6 PUSH1 0x20 DUP7 ADD PUSH2 0x55A JUMP JUMPDEST DUP1 DUP5 ADD SWAP2 POP POP SWAP3 SWAP2 POP POP JUMP JUMPDEST PUSH1 0x0 PUSH2 0x5C1 DUP3 DUP5 PUSH2 0x584 JUMP JUMPDEST SWAP2 POP DUP2 SWAP1 POP SWAP3 SWAP2 POP POP JUMP JUMPDEST PUSH32 0x4E487B7100000000000000000000000000000000000000000000000000000000 PUSH1 0x0 MSTORE PUSH1 0x11 PUSH1 0x4 MSTORE PUSH1 0x24 PUSH1 0x0 REVERT JUMPDEST PUSH1 0x0 PUSH2 0x606 DUP3 PUSH2 0x475 JUMP JUMPDEST SWAP2 POP PUSH2 0x611 DUP4 PUSH2 0x475 JUMP JUMPDEST SWAP3 POP DUP3 DUP3 ADD SWAP1 POP DUP1 DUP3 GT ISZERO PUSH2 0x629 JUMPI PUSH2 0x628 PUSH2 0x5CC JUMP JUMPDEST JUMPDEST SWAP3 SWAP2 POP POP JUMP JUMPDEST PUSH1 0x0 PUSH2 0x63A DUP3 PUSH2 0x475 JUMP JUMPDEST SWAP2 POP PUSH2 0x645 DUP4 PUSH2 0x475 JUMP JUMPDEST SWAP3 POP DUP3 DUP3 SUB SWAP1 POP DUP2 DUP2 GT ISZERO PUSH2 0x65D JUMPI PUSH2 0x65C PUSH2 0x5CC JUMP JUMPDEST JUMPDEST SWAP3 SWAP2 POP POP JUMP JUMPDEST PUSH1 0x0 PUSH2 0x66E DUP3 PUSH2 0x475 JUMP JUMPDEST SWAP2 POP PUSH2 0x679 DUP4 PUSH2 0x475 JUMP JUMPDEST SWAP3 POP DUP3 DUP3 MUL PUSH2 0x687 DUP2 PUSH2 0x475 JUMP JUMPDEST SWAP2 POP DUP3 DUP3 DIV DUP5 EQ DUP4 ISZERO OR PUSH2 0x69E JUMPI PUSH2 0x69D PUSH2 0x5CC JUMP JUMPDEST JUMPDEST POP SWAP3 SWAP2 POP POP JUMP JUMPDEST PUSH32 0x4E487B7100000000000000000000000000000000000000000000000000000000 PUSH1 0x0 MSTORE PUSH1 0x12 PUSH1 0x4 MSTORE PUSH1 0x24 PUSH1 0x0 REVERT JUMPDEST PUSH1 0x0 PUSH2 0x6DF DUP3 PUSH2 0x475 JUMP JUMPDEST SWAP2 POP PUSH2 0x6EA DUP4 PUSH2 0x475 JUMP JUMPDEST SWAP3 POP DUP3 PUSH2 0x6FA JUMPI PUSH2 0x6F9 PUSH2 0x6A5 JUMP JUMPDEST JUMPDEST DUP3 DUP3 DIV SWAP1 POP SWAP3 SWAP2 POP POP JUMP INVALID LOG2 PUSH5 0x6970667358 0x22 SLT KECCAK256 0xD2 PUSH15 0x386814DC00606573A880E371D946AF PUSH19 0x2D47C5F52B13CD761E1A8243692564736F6C63 NUMBER STOP ADDMOD SLT STOP CALLER "
				},
				"gasEstimates": {
					"creation": {
						"codeDepositCost": "370200",
						"executionCost": "405",
						"totalCost": "370605"
					},
					"external": {
						"calculate(uint256,string,uint256)": "infinite",
						"compare_strings(string,string)": "infinite"
					}
				},
				"methodIdentifiers": {
					"calculate(uint256,string,uint256)": "cbc02821",
					"compare_strings(string,string)": "afc3342e"
				}
			},
			"storageLayout": {
				"storage": [],
				"types": null
			},
			"userdoc": {
				"kind": "user",
				"methods": {},
				"version": 1
			}
		}
	}
}